{
  "_format": "hh-sol-artifact-1",
  "contractName": "AcademicCertificates",
  "sourceName": "contracts/AcademicCertificates.sol",
  "abi": [
    {
      "inputs": [],
      "stateMutability": "nonpayable",
      "type": "constructor"
    },
    {
      "inputs": [
        {
          "internalType": "address",
          "name": "sender",
          "type": "address"
        },
        {
          "internalType": "uint256",
          "name": "tokenId",
          "type": "uint256"
        },
        {
          "internalType": "address",
          "name": "owner",
          "type": "address"
        }
      ],
      "name": "ERC721IncorrectOwner",
      "type": "error"
    },
    {
      "inputs": [
        {
          "internalType": "address",
          "name": "operator",
          "type": "address"
        },
        {
          "internalType": "uint256",
          "name": "tokenId",
          "type": "uint256"
        }
      ],
      "name": "ERC721InsufficientApproval",
      "type": "error"
    },
    {
      "inputs": [
        {
          "internalType": "address",
          "name": "approver",
          "type": "address"
        }
      ],
      "name": "ERC721InvalidApprover",
      "type": "error"
    },
    {
      "inputs": [
        {
          "internalType": "address",
          "name": "operator",
          "type": "address"
        }
      ],
      "name": "ERC721InvalidOperator",
      "type": "error"
    },
    {
      "inputs": [
        {
          "internalType": "address",
          "name": "owner",
          "type": "address"
        }
      ],
      "name": "ERC721InvalidOwner",
      "type": "error"
    },
    {
      "inputs": [
        {
          "internalType": "address",
          "name": "receiver",
          "type": "address"
        }
      ],
      "name": "ERC721InvalidReceiver",
      "type": "error"
    },
    {
      "inputs": [
        {
          "internalType": "address",
          "name": "sender",
          "type": "address"
        }
      ],
      "name": "ERC721InvalidSender",
      "type": "error"
    },
    {
      "inputs": [
        {
          "internalType": "uint256",
          "name": "tokenId",
          "type": "uint256"
        }
      ],
      "name": "ERC721NonexistentToken",
      "type": "error"
    },
    {
      "inputs": [
        {
          "internalType": "uint256",
          "name": "value",
          "type": "uint256"
        },
        {
          "internalType": "uint256",
          "name": "length",
          "type": "uint256"
        }
      ],
      "name": "StringsInsufficientHexLength",
      "type": "error"
    },
    {
      "anonymous": false,
      "inputs": [
        {
          "indexed": true,
          "internalType": "address",
          "name": "owner",
          "type": "address"
        },
        {
          "indexed": true,
          "internalType": "address",
          "name": "approved",
          "type": "address"
        },
        {
          "indexed": true,
          "internalType": "uint256",
          "name": "tokenId",
          "type": "uint256"
        }
      ],
      "name": "Approval",
      "type": "event"
    },
    {
      "anonymous": false,
      "inputs": [
        {
          "indexed": true,
          "internalType": "address",
          "name": "owner",
          "type": "address"
        },
        {
          "indexed": true,
          "internalType": "address",
          "name": "operator",
          "type": "address"
        },
        {
          "indexed": false,
          "internalType": "bool",
          "name": "approved",
          "type": "bool"
        }
      ],
      "name": "ApprovalForAll",
      "type": "event"
    },
    {
      "anonymous": false,
      "inputs": [
        {
          "indexed": true,
          "internalType": "bytes32",
          "name": "id",
          "type": "bytes32"
        },
        {
          "indexed": false,
          "internalType": "string",
          "name": "nombreEstudiante",
          "type": "string"
        },
        {
          "indexed": true,
          "internalType": "address",
          "name": "emisor",
          "type": "address"
        },
        {
          "indexed": true,
          "internalType": "address",
          "name": "estudiante",
          "type": "address"
        }
      ],
      "name": "LogCertificadoEmitido",
      "type": "event"
    },
    {
      "anonymous": false,
      "inputs": [
        {
          "indexed": true,
          "internalType": "bytes32",
          "name": "id",
          "type": "bytes32"
        },
        {
          "indexed": false,
          "internalType": "string",
          "name": "motivo",
          "type": "string"
        },
        {
          "indexed": false,
          "internalType": "uint256",
          "name": "fechaRevocacion",
          "type": "uint256"
        }
      ],
      "name": "LogCertificadoRevocado",
      "type": "event"
    },
    {
      "anonymous": false,
      "inputs": [
        {
          "indexed": true,
          "internalType": "address",
          "name": "emisor",
          "type": "address"
        },
        {
          "indexed": false,
          "internalType": "bool",
          "name": "autorizado",
          "type": "bool"
        }
      ],
      "name": "LogEmisorModificado",
      "type": "event"
    },
    {
      "anonymous": false,
      "inputs": [
        {
          "indexed": true,
          "internalType": "bytes32",
          "name": "id",
          "type": "bytes32"
        },
        {
          "indexed": true,
          "internalType": "address",
          "name": "estudiante",
          "type": "address"
        },
        {
          "indexed": true,
          "internalType": "uint256",
          "name": "tokenId",
          "type": "uint256"
        }
      ],
      "name": "LogNFTMinteado",
      "type": "event"
    },
    {
      "anonymous": false,
      "inputs": [
        {
          "indexed": true,
          "internalType": "bytes32",
          "name": "id",
          "type": "bytes32"
        },
        {
          "indexed": true,
          "internalType": "address",
          "name": "estudiante",
          "type": "address"
        },
        {
          "indexed": false,
          "internalType": "uint256",
          "name": "fechaRecepcion",
          "type": "uint256"
        }
      ],
      "name": "LogRecepcionFirmada",
      "type": "event"
    },
    {
      "anonymous": false,
      "inputs": [
        {
          "indexed": true,
          "internalType": "address",
          "name": "from",
          "type": "address"
        },
        {
          "indexed": true,
          "internalType": "address",
          "name": "to",
          "type": "address"
        },
        {
          "indexed": true,
          "internalType": "uint256",
          "name": "tokenId",
          "type": "uint256"
        }
      ],
      "name": "Transfer",
      "type": "event"
    },
    {
      "inputs": [
        {
          "internalType": "address",
          "name": "to",
          "type": "address"
        },
        {
          "internalType": "uint256",
          "name": "tokenId",
          "type": "uint256"
        }
      ],
      "name": "approve",
      "outputs": [],
      "stateMutability": "nonpayable",
      "type": "function"
    },
    {
      "inputs": [
        {
          "internalType": "address",
          "name": "owner",
          "type": "address"
        }
      ],
      "name": "balanceOf",
      "outputs": [
        {
          "internalType": "uint256",
          "name": "",
          "type": "uint256"
        }
      ],
      "stateMutability": "view",
      "type": "function"
    },
    {
      "inputs": [
        {
          "internalType": "bytes32",
          "name": "",
          "type": "bytes32"
        }
      ],
      "name": "certificados",
      "outputs": [
        {
          "internalType": "bytes32",
          "name": "id",
          "type": "bytes32"
        },
        {
          "internalType": "string",
          "name": "codigo",
          "type": "string"
        },
        {
          "internalType": "string",
          "name": "nombreEstudiante",
          "type": "string"
        },
        {
          "internalType": "string",
          "name": "carrera",
          "type": "string"
        },
        {
          "internalType": "uint256",
          "name": "fechaEmision",
          "type": "uint256"
        },
        {
          "internalType": "uint256",
          "name": "fechaRecepcion",
          "type": "uint256"
        },
        {
          "internalType": "address",
          "name": "emisor",
          "type": "address"
        },
        {
          "internalType": "address",
          "name": "estudiante",
          "type": "address"
        },
        {
          "internalType": "enum AcademicCertificates.EstadoCertificado",
          "name": "estado",
          "type": "uint8"
        },
        {
          "internalType": "uint256",
          "name": "fechaRevocacion",
          "type": "uint256"
        },
        {
          "internalType": "string",
          "name": "motivoRevocacion",
          "type": "string"
        }
      ],
      "stateMutability": "view",
      "type": "function"
    },
    {
      "inputs": [
        {
          "internalType": "bytes32",
          "name": "_hashPDF",
          "type": "bytes32"
        }
      ],
      "name": "consultarHistorial",
      "outputs": [
        {
          "internalType": "uint256",
          "name": "fechaEmision",
          "type": "uint256"
        },
        {
          "internalType": "uint256",
          "name": "fechaRecepcion",
          "type": "uint256"
        },
        {
          "internalType": "address",
          "name": "emisor",
          "type": "address"
        },
        {
          "internalType": "enum AcademicCertificates.EstadoCertificado",
          "name": "estado",
          "type": "uint8"
        },
        {
          "internalType": "uint256",
          "name": "fechaRevocacion",
          "type": "uint256"
        },
        {
          "internalType": "string",
          "name": "motivoRevocacion",
          "type": "string"
        }
      ],
      "stateMutability": "view",
      "type": "function"
    },
    {
      "inputs": [
        {
          "internalType": "address",
          "name": "",
          "type": "address"
        }
      ],
      "name": "emisoresAutorizados",
      "outputs": [
        {
          "internalType": "bool",
          "name": "",
          "type": "bool"
        }
      ],
      "stateMutability": "view",
      "type": "function"
    },
    {
      "inputs": [
        {
          "internalType": "bytes32",
          "name": "_hashPDF",
          "type": "bytes32"
        },
        {
          "internalType": "string",
          "name": "_codigo",
          "type": "string"
        },
        {
          "internalType": "string",
          "name": "_nombre",
          "type": "string"
        },
        {
          "internalType": "string",
          "name": "_carrera",
          "type": "string"
        },
        {
          "internalType": "address",
          "name": "_estudiante",
          "type": "address"
        }
      ],
      "name": "emitirCertificado",
      "outputs": [],
      "stateMutability": "nonpayable",
      "type": "function"
    },
    {
      "inputs": [
        {
          "internalType": "bytes32",
          "name": "_hashPDF",
          "type": "bytes32"
        }
      ],
      "name": "firmarRecepcion",
      "outputs": [],
      "stateMutability": "nonpayable",
      "type": "function"
    },
    {
      "inputs": [
        {
          "internalType": "uint256",
          "name": "tokenId",
          "type": "uint256"
        }
      ],
      "name": "getApproved",
      "outputs": [
        {
          "internalType": "address",
          "name": "",
          "type": "address"
        }
      ],
      "stateMutability": "view",
      "type": "function"
    },
    {
      "inputs": [
        {
          "internalType": "uint256",
          "name": "",
          "type": "uint256"
        }
      ],
      "name": "hashPorToken",
      "outputs": [
        {
          "internalType": "bytes32",
          "name": "",
          "type": "bytes32"
        }
      ],
      "stateMutability": "view",
      "type": "function"
    },
    {
      "inputs": [
        {
          "internalType": "address",
          "name": "owner",
          "type": "address"
        },
        {
          "internalType": "address",
          "name": "operator",
          "type": "address"
        }
      ],
      "name": "isApprovedForAll",
      "outputs": [
        {
          "internalType": "bool",
          "name": "",
          "type": "bool"
        }
      ],
      "stateMutability": "view",
      "type": "function"
    },
    {
      "inputs": [],
      "name": "name",
      "outputs": [
        {
          "internalType": "string",
          "name": "",
          "type": "string"
        }
      ],
      "stateMutability": "view",
      "type": "function"
    },
    {
      "inputs": [
        {
          "internalType": "address",
          "name": "_emisor",
          "type": "address"
        },
        {
          "internalType": "bool",
          "name": "_autorizado",
          "type": "bool"
        }
      ],
      "name": "ordenarEmisor",
      "outputs": [],
      "stateMutability": "nonpayable",
      "type": "function"
    },
    {
      "inputs": [],
      "name": "owner",
      "outputs": [
        {
          "internalType": "address",
          "name": "",
          "type": "address"
        }
      ],
      "stateMutability": "view",
      "type": "function"
    },
    {
      "inputs": [
        {
          "internalType": "uint256",
          "name": "tokenId",
          "type": "uint256"
        }
      ],
      "name": "ownerOf",
      "outputs": [
        {
          "internalType": "address",
          "name": "",
          "type": "address"
        }
      ],
      "stateMutability": "view",
      "type": "function"
    },
    {
      "inputs": [
        {
          "internalType": "bytes32",
          "name": "_hashPDF",
          "type": "bytes32"
        },
        {
          "internalType": "string",
          "name": "_motivo",
          "type": "string"
        }
      ],
      "name": "revocarCertificado",
      "outputs": [],
      "stateMutability": "nonpayable",
      "type": "function"
    },
    {
      "inputs": [
        {
          "internalType": "address",
          "name": "from",
          "type": "address"
        },
        {
          "internalType": "address",
          "name": "to",
          "type": "address"
        },
        {
          "internalType": "uint256",
          "name": "tokenId",
          "type": "uint256"
        }
      ],
      "name": "safeTransferFrom",
      "outputs": [],
      "stateMutability": "nonpayable",
      "type": "function"
    },
    {
      "inputs": [
        {
          "internalType": "address",
          "name": "from",
          "type": "address"
        },
        {
          "internalType": "address",
          "name": "to",
          "type": "address"
        },
        {
          "internalType": "uint256",
          "name": "tokenId",
          "type": "uint256"
        },
        {
          "internalType": "bytes",
          "name": "data",
          "type": "bytes"
        }
      ],
      "name": "safeTransferFrom",
      "outputs": [],
      "stateMutability": "nonpayable",
      "type": "function"
    },
    {
      "inputs": [
        {
          "internalType": "address",
          "name": "operator",
          "type": "address"
        },
        {
          "internalType": "bool",
          "name": "approved",
          "type": "bool"
        }
      ],
      "name": "setApprovalForAll",
      "outputs": [],
      "stateMutability": "nonpayable",
      "type": "function"
    },
    {
      "inputs": [
        {
          "internalType": "bytes4",
          "name": "interfaceId",
          "type": "bytes4"
        }
      ],
      "name": "supportsInterface",
      "outputs": [
        {
          "internalType": "bool",
          "name": "",
          "type": "bool"
        }
      ],
      "stateMutability": "view",
      "type": "function"
    },
    {
      "inputs": [],
      "name": "symbol",
      "outputs": [
        {
          "internalType": "string",
          "name": "",
          "type": "string"
        }
      ],
      "stateMutability": "view",
      "type": "function"
    },
    {
      "inputs": [
        {
          "internalType": "bytes32",
          "name": "",
          "type": "bytes32"
        }
      ],
      "name": "tokenPorHash",
      "outputs": [
        {
          "internalType": "uint256",
          "name": "",
          "type": "uint256"
        }
      ],
      "stateMutability": "view",
      "type": "function"
    },
    {
      "inputs": [
        {
          "internalType": "uint256",
          "name": "tokenId",
          "type": "uint256"
        }
      ],
      "name": "tokenURI",
      "outputs": [
        {
          "internalType": "string",
          "name": "",
          "type": "string"
        }
      ],
      "stateMutability": "view",
      "type": "function"
    },
    {
      "inputs": [
        {
          "internalType": "address",
          "name": "from",
          "type": "address"
        },
        {
          "internalType": "address",
          "name": "to",
          "type": "address"
        },
        {
          "internalType": "uint256",
          "name": "tokenId",
          "type": "uint256"
        }
      ],
      "name": "transferFrom",
      "outputs": [],
      "stateMutability": "nonpayable",
      "type": "function"
    },
    {
      "inputs": [
        {
          "internalType": "bytes32",
          "name": "_hashPDF",
          "type": "bytes32"
        }
      ],
      "name": "verificarCertificado",
      "outputs": [
        {
          "components": [
            {
              "internalType": "bytes32",
              "name": "id",
              "type": "bytes32"
            },
            {
              "internalType": "string",
              "name": "codigo",
              "type": "string"
            },
            {
              "internalType": "string",
              "name": "nombreEstudiante",
              "type": "string"
            },
            {
              "internalType": "string",
              "name": "carrera",
              "type": "string"
            },
            {
              "internalType": "uint256",
              "name": "fechaEmision",
              "type": "uint256"
            },
            {
              "internalType": "uint256",
              "name": "fechaRecepcion",
              "type": "uint256"
            },
            {
              "internalType": "address",
              "name": "emisor",
              "type": "address"
            },
            {
              "internalType": "address",
              "name": "estudiante",
              "type": "address"
            },
            {
              "internalType": "enum AcademicCertificates.EstadoCertificado",
              "name": "estado",
              "type": "uint8"
            },
            {
              "internalType": "uint256",
              "name": "fechaRevocacion",
              "type": "uint256"
            },
            {
              "internalType": "string",
              "name": "motivoRevocacion",
              "type": "string"
            }
          ],
          "internalType": "struct AcademicCertificates.Certificate",
          "name": "",
          "type": "tuple"
        }
      ],
      "stateMutability": "view",
      "type": "function"
    }
  ],
  "bytecode": "0x60803462000319576040906001600160401b038183018181118382101762000237578352601e82526020907f436572746966696361646f2041636164656d69636f20554e4956414c4c4500008284015283518481018181108382111762000237578552600681526521a2a92a2aab60d11b8382015283519082821162000237575f54916001958684811c941680156200030e575b8685101462000218578190601f94858111620002bb575b50869085831160011462000257575f926200024b575b50505f19600383901b1c191690861b175f555b8051928311620002375784548581811c911680156200022c575b858210146200021857828111620001d0575b5083918311600114620001695760079392915f91836200015d575b50505f19600383901b1c191690841b1783555b3360018060a01b03196006541617600655335f5252815f209060ff19825416179055516129af90816200031e8239f35b015190505f806200011a565b9184919392601f19821694835f52845f20915f5b878110620001b8575083600797106200019f575b505050811b0183556200012d565b01515f1960f88460031b161c191690555f808062000191565b8282015184558895909301929186019186016200017d565b855f52845f208380860160051c8201928787106200020e575b0160051c019086905b82811062000202575050620000ff565b5f8155018690620001f2565b92508192620001e9565b634e487b7160e01b5f52602260045260245ffd5b90607f1690620000ed565b634e487b7160e01b5f52604160045260245ffd5b015190505f80620000c0565b90889350601f198316915f8052885f20925f5b8a828210620002a457505084116200028b575b505050811b015f55620000d3565b01515f1960f88460031b161c191690555f80806200027d565b8385015186558c979095019493840193016200026a565b9091505f8052865f208580850160051c82019289861062000304575b918a91869594930160051c01915b828110620002f5575050620000aa565b5f81558594508a9101620002e5565b92508192620002d7565b93607f169362000093565b5f80fdfe6080806040526004361015610012575f80fd5b5f3560e01c90816301ffc9a714611e145750806306fdde0314611d6d5780630800ba3f14611b6a578063081812fc14611b2e578063095ea7b314611a4d5780630c188b4c14611a235780630db16eca146119f957806311b09380146118f657806323b872dd146118df57806342842e0e146118b25780634a7546361461165f5780636352211e1461162f57806368cad01c146115f257806370a082311461159c578063796bf795146115035780638da5cb5b146114db57806395d89b41146113fd578063a22cb4651461134c578063b88d4fde146112df578063c87b56dd14610e0a578063e8e0909d14610ca1578063e985e9c514610c4f578063ee666da0146101fe5763f617836914610124575f80fd5b346101fa57610132366120ef565b60065490916001600160a01b03918216330361019a577fe40cb3fa3e52fdb62f45b56c4fe552f5ae8638bbeaa13fc66ebac5cbc9de58b2916020911692835f526007825261018f8160405f209060ff801983541691151516179055565b6040519015158152a2005b60405162461bcd60e51b815260206004820152603260248201527f536f6c6f20656c2070726f706965746172696f206465206c61204441707020706044820152717565646520656a656375746172206573746f60701b6064820152608490fd5b5f80fd5b346101fa5760a03660031901126101fa576024356001600160401b0381116101fa5761022e9036906004016120d1565b6044356001600160401b0381116101fa5761024d9036906004016120d1565b906064356001600160401b0381116101fa5761026d9036906004016120d1565b6084356001600160a01b03811690036101fa57335f52600760205261029860ff60405f20541661238e565b6004355f52600860205260405f2054610bf3576084356001600160a01b031615610baf57604051916102c983611f36565b6004358352602083015282604083015260608201524260808201525f60a08201523360c082015260018060a01b036084351660e08201525f6101008201525f61012082015260405161031a81611f52565b5f81526101408201526004355f52600860205260405f20908051825560208101519283516001600160401b038111610959576103596001850154611efe565b601f8111610b6b575b506020601f8211600114610b005781929394955f92610af5575b50508160011b915f199060031b1c19161760018401555b60408201519283516001600160401b038111610959576103b66002830154611efe565b601f8111610ab1575b506020601f8211600114610a465781929394955f92610a3b575b50508160011b915f199060031b1c19161760028201555b60608301519283516001600160401b038111610959576104136003840154611efe565b601f81116109f7575b506020601f821160011461098c5781929394955f92610981575b50508160011b915f199060031b1c19161760038301555b6080810151600483015560a0810151600583015560c08101516006830180546001600160a01b0319166001600160a01b0392831617905560e082015160078401805461010085015194939192909116600385101561096d576101409460ff60a01b9060a01b16916affffffffffffffffffffff60a81b1617179055610120810151600884015501518051906001600160401b038211610959576104f36009840154611efe565b601f8111610915575b50602090601f83116001146108a957600992915f918361089e575b50508160011b915f199060031b1c1916179101555b6040516020815260018060a01b0360843516917f074d3c61968abdbcc520c81f8b8ef54a73c2216b63af4b78d30eb411dbafddc3339280610574600435946020830190611ea0565b0390a46009545f199081811461088a576001019081600955815f52600a60205260043560405f20556004355f52600b6020528160405f2055604051906105b982611f52565b5f808352838152600260205260409020546001600160a01b0316158015610883575b1561082a575f838152600260205260409020546001600160a01b031680151591849190836107f7575b506084356001600160a01b03165f818152600360209081526040808320805460010190558583526002909152812080546001600160a01b031916831790559091907fddf252ad1be2c89b69c2b068fc378daa952ba7f163c4a11628f55a4df523b3ef9080a46107df576084353b6106ac575b506084356001600160a01b03166004357f01aa79ba8a77bf7910f8b1d448a5ad2f6d0758b055e8a01a8878c7b2b0eac7bc5f80a4005b604051602081806106e5630a85bd0160e11b958683523360048401525f6024840152876044840152608060648401526084830190611ea0565b03815f6084356001600160a01b03165af15f918161079a575b50610762573d1561075b573d61071381612080565b906107216040519283611f88565b81523d5f602083013e5b8051908161075657604051633250574960e11b81526084356001600160a01b03166004820152602490fd5b602001fd5b606061072b565b6001600160e01b031916036107775781610676565b604051633250574960e11b81526084356001600160a01b03166004820152602490fd5b9091506020813d6020116107d7575b816107b660209383611f88565b810103126101fa57516001600160e01b0319811681036101fa5790846106fe565b3d91506107a9565b6040516339e3563760e11b81525f6004820152602490fd5b5f83815260046020526040902080546001600160a01b0319169055815f52600360205260405f2090815401905585610604565b60405162461bcd60e51b815260206004820152602b60248201527f536f756c626f756e643a20656c20636572746966696361646f20657320696e7460448201526a72616e7366657269626c6560a81b6064820152608490fd5b505f6105db565b634e487b7160e01b5f52601160045260245ffd5b015190508580610517565b90600984015f5260205f20915f5b601f19851681106108fd5750918391600193600995601f198116106108e5575b505050811b0191015561052c565b01515f1960f88460031b161c191690558580806108d7565b919260206001819286850151815501940192016108b7565b600984015f5260205f20601f840160051c810160208510610952575b601f830160051c820181106109475750506104fc565b5f8155600101610931565b5080610931565b634e487b7160e01b5f52604160045260245ffd5b634e487b7160e01b5f52602160045260245ffd5b015190508580610436565b600384015f5260205f20905f5b601f19841681106109df575060019394959683601f198116106109c7575b505050811b01600383015561044d565b01515f1960f88460031b161c191690558580806109b7565b9091602060018192858b015181550193019101610999565b600384015f5260205f20601f830160051c810160208410610a34575b601f830160051c82018110610a2957505061041c565b5f8155600101610a13565b5080610a13565b0151905085806103d9565b600283015f5260205f20905f5b601f1984168110610a99575060019394959683601f19811610610a81575b505050811b0160028201556103f0565b01515f1960f88460031b161c19169055858080610a71565b9091602060018192858b015181550193019101610a53565b600283015f5260205f20601f830160051c810160208410610aee575b601f830160051c82018110610ae35750506103bf565b5f8155600101610acd565b5080610acd565b01519050858061037c565b600185015f5260205f20905f5b601f1984168110610b53575060019394959683601f19811610610b3b575b505050811b016001840155610393565b01515f1960f88460031b161c19169055858080610b2b565b9091602060018192858b015181550193019101610b0d565b600185015f5260205f20601f830160051c810160208410610ba8575b601f830160051c82018110610b9d575050610362565b5f8155600101610b87565b5080610b87565b606460405162461bcd60e51b815260206004820152602060248201527f446972656363696f6e20646520657374756469616e746520696e76616c6964616044820152fd5b60405162461bcd60e51b815260206004820152602e60248201527f456c2068617368206465206573746520636572746966696361646f207961206560448201526d737461207265676973747261646f60901b6064820152608490fd5b346101fa5760403660031901126101fa57610c68611ed2565b610c70611ee8565b9060018060a01b038091165f52600560205260405f2091165f52602052602060ff60405f2054166040519015158152f35b346101fa5760203660031901126101fa57600435805f52600860205260405f20610ccd815415156123f1565b6007810180546001600160a01b0381163303610da75760ff8160a01c16600381101561096d57610d3c57600160a01b9060ff60a01b1916179055600542910155604051904282527ff0e88fe41174c278d186ef86d0e72515e6800013f0e803fa1cddf0e742ac30c260203393a3005b60405162461bcd60e51b815260206004820152603b60248201527f456c20636572746966696361646f206e6f2065737461206c6973746f2070617260448201527f61206669726d6172206f207961206675652070726f63657361646f00000000006064820152608490fd5b60405162461bcd60e51b815260206004820152603560248201527f536f6c6f20656c20657374756469616e746520617369676e61646f207075656460448201527432903334b936b0b9103630903932b1b2b831b4b7b760591b6064820152608490fd5b346101fa576020806003193601126101fa57600435610e28816124bd565b50805f52600a825260405f20545f5260088252610e4860405f2091612641565b6002820191610e5a6004820154612641565b600182548060405191608083018381106001600160401b0382111761095957604052604283528883019360603686378351156112cb57603085538351600110156112cb57607860218501536041905b8082116112845750506112665750600784015460a01c60ff16610ecb906127a8565b936040519687968988017f7b226e616d65223a22436572746966696361646f2041636164656d69636f20239052805190818b60408b01920191610f0d92611e7f565b8701604081016201016960ed1b9052604301610f29908261243d565b7f222c226465736372697074696f6e223a22546974756c6f2061636164656d696381527f6f20656d697469646f2079207665726966696361646f206f6e2d636861696e208a8201527f706f7220554e4956414c4c452e204e465420736f756c626f756e6420286e6f2060408201526f1d1c985b9cd9995c9a589b194a4b888b60821b60608201526d2261747472696275746573223a5b60901b60708201527f7b2274726169745f74797065223a22457374756469616e7465222c2276616c75607e8201526332911d1160e11b609e8201526110099160a29091019061243d565b9362089f4b60ea1b94858152600381017f7b2274726169745f74797065223a2243617272657261222c2276616c7565223a9052601160f91b602382015260240160038301906110579161243d565b8581527f7b2274726169745f74797065223a22556e697665727369646164222c2276616c60038201527f7565223a22556e6976657273696461642064656c2056616c6c652028554e4956602382015267105313114a489f4b60c21b60438201527f7b2274726169745f74797065223a22466563686120646520456d6973696f6e22604b8201526916113b30b63ab2911d1160b11b606b82015281519161110590839060758401908d01611e7f565b01846075820152607881017f7b2274726169745f74797065223a22436f6469676f222c2276616c7565223a22905260980190600101906111449161243d565b90838252600382017f7b2274726169745f74797065223a2248617368222c2276616c7565223a22000090525191826021830161117f92611e7f565b01906021820152602481017f7b2274726169745f74797065223a2245737461646f222c2276616c7565223a2290528151918286604484019201916111c292611e7f565b0161227d60f01b604482015260468101615d7d60f01b9052036028810182526048016111ee9082611f88565b6111f79061283a565b9060405180928282017f646174613a6170706c69636174696f6e2f6a736f6e3b6261736536342c00000090528051908184603d850192019161123892611e7f565b810103601d81018352603d0161124e9083611f88565b604051918183928352820161126291611ea0565b0390f35b604490886040519163e22e27eb60e01b835260048301526024820152fd5b9091600f811660108110156112cb5785518410156112cb576f181899199a1a9b1b9c1cb0b131b232b360811b901a8584018c015360041c91801561088a575f190190610ea9565b634e487b7160e01b5f52603260045260245ffd5b346101fa5760803660031901126101fa576112f8611ed2565b611300611ee8565b90604435606435926001600160401b0384116101fa57366023850112156101fa5761133861134a94369060248160040135910161209b565b92611344838383612179565b336124f7565b005b346101fa5761135a366120ef565b9033156113e5576001600160a01b03169081156113cc57335f52600560205260405f20825f5260205261139c8160405f209060ff801983541691151516179055565b60405190151581527f17307eab39ab6107e8899845ad3d59bd9653f200f220920489ca2b5937696c3160203392a3005b604051630b61174360e31b815260048101839052602490fd5b60405163a9fbf51f60e01b81525f6004820152602490fd5b346101fa575f3660031901126101fa576040515f6001826001549261142184611efe565b92838352602094856001821691825f146114bb575050600114611460575b5061144c92500383611f88565b611262604051928284938452830190611ea0565b84915060015f527fb10e2d527612073b26eecdfd717e6a320cf44b4afac2b0732d9fcbe2b7fa0cf6905f915b8583106114a357505061144c93508201018561143f565b8054838901850152879450869390920191810161148c565b60ff19168582015261144c95151560051b850101925087915061143f9050565b346101fa575f3660031901126101fa576006546040516001600160a01b039091168152602090f35b346101fa5760203660031901126101fa576004355f52600860205260405f2061152e8154151561211e565b600481015461126260058301549260018060a01b03600682015416906115866007820154611563600960088501549401611fa9565b9360405197889788526020880152604087015260ff606087019160a01c16611ec5565b608084015260c060a084015260c0830190611ea0565b346101fa5760203660031901126101fa576001600160a01b036115bd611ed2565b1680156115da575f526003602052602060405f2054604051908152f35b6040516322718ad960e21b81525f6004820152602490fd5b346101fa5760203660031901126101fa576001600160a01b03611613611ed2565b165f526007602052602060ff60405f2054166040519015158152f35b346101fa5760203660031901126101fa57602061164d6004356124bd565b6040516001600160a01b039091168152f35b346101fa5760403660031901126101fa576004356001600160401b036024358181116101fa576116939036906004016120d1565b90335f52602090600782526116ae60ff60405f20541661238e565b835f526008825260405f206116c5815415156123f1565b60078101805460ff8160a01c16600381101561096d5760021461185d5760ff60a01b1916600160a11b1790554260088201558351600991909101918111610959576117108254611efe565b601f811161181a575b5082601f821160011461179457918161177e94927f33567e9e655cb32d8944763b8e785872f05e07d4fc375c7818f33b3ec24e892496945f91611789575b508160011b915f199060031b1c19161790555b604051928392604084526040840190611ea0565b9042908301520390a2005b905084015188611757565b601f19821690835f52845f20915f5b8181106118035750927f33567e9e655cb32d8944763b8e785872f05e07d4fc375c7818f33b3ec24e89249694926001928261177e9896106117eb575b5050811b01905561176a565b8601515f1960f88460031b161c1916905588806117df565b91928660018192868b0151815501940192016117a3565b825f52835f20601f830160051c810191858410611853575b601f0160051c01905b8181106118485750611719565b5f815560010161183b565b9091508190611832565b60405162461bcd60e51b815260048101869052602760248201527f456c20636572746966696361646f20796120736520656e6375656e747261207260448201526665766f6361646f60c81b6064820152608490fd5b346101fa5761134a6118c33661204b565b90604051926118d184611f52565b5f8452611344838383612179565b346101fa5761134a6118f03661204b565b91612179565b346101fa5760203660031901126101fa576004355f52600860205260405f2080546001820161192490611fa9565b9161193160028201611fa9565b9061193e60038201611fa9565b906004810154916005820154600160a01b6001900390816006850154169060078501549360088601549560090161197490611fa9565b976040519a8b9a610160908c528060208d01528b0161199291611ea0565b8a810360408c01526119a391611ea0565b89810360608b01526119b491611ea0565b95608089015260a088015260c0870152811660e086015261010085019060a01c60ff16906119e191611ec5565b61012084015282810361014084015261126291611ea0565b346101fa5760203660031901126101fa576004355f52600a602052602060405f2054604051908152f35b346101fa5760203660031901126101fa576004355f52600b602052602060405f2054604051908152f35b346101fa5760403660031901126101fa57611a66611ed2565b602435611a72816124bd565b33151580611b1b575b80611af2575b611ada576001600160a01b039283169282918491167f8c5be1e5ebec7d5bd14f71427d1e84f3dd0314c0f7b2291e5b200ac8c7c3b9255f80a45f90815260046020526040902080546001600160a01b0319169091179055005b60405163a9fbf51f60e01b8152336004820152602490fd5b5060018060a01b0381165f52600560205260405f20335f5260205260ff60405f20541615611a81565b506001600160a01b038116331415611a7b565b346101fa5760203660031901126101fa57600435611b4b816124bd565b505f526004602052602060018060a01b0360405f205416604051908152f35b346101fa5760203660031901126101fa576004356060610140604051611b8f81611f36565b5f815282602082015282604082015282808201525f60808201525f60a08201525f60c08201525f60e08201525f6101008201525f6101208201520152805f526008602052611be260405f2054151561211e565b5f52600860205260405f20604051611bf981611f36565b81548152611c0960018301611fa9565b6020820152611c1a60028301611fa9565b6040820152611c2b60038301611fa9565b606082015260048201546080820152600582015460a08083019190915260068301546001600160a01b0390811660c0840152600784015490811660e0840152901c60ff1691600383101561096d576009611c9a9161126294610100850152600881015461012085015201611fa9565b6101408201526040519182916020835280516020840152610140611d01611ceb611cd560208501516101606040890152610180880190611ea0565b6040850151878203601f19016060890152611ea0565b6060840151868203601f19016080880152611ea0565b91608081015160a086015260a081015160c086015260018060a01b0360c08201511660e086015260018060a01b0360e082015116610100860152611d4f610100820151610120870190611ec5565b610120810151858301520151838203601f1901610160850152611ea0565b346101fa575f3660031901126101fa576040515f80549082611d8e83611efe565b91828252602093600190856001821691825f146114bb575050600114611dbb575061144c92500383611f88565b5f808052859250907f290decd9548b62a8d60345a988386fc84ba6bc95484008f6362f93160ef3e5635b858310611dfc57505061144c93508201018561143f565b80548389018501528794508693909201918101611de5565b346101fa5760203660031901126101fa576004359063ffffffff60e01b82168092036101fa576020916380ac58cd60e01b8114908115611e6e575b8115611e5d575b5015158152f35b6301ffc9a760e01b14905083611e56565b635b5e139f60e01b81149150611e4f565b5f5b838110611e905750505f910152565b8181015183820152602001611e81565b90602091611eb981518092818552858086019101611e7f565b601f01601f1916010190565b90600382101561096d5752565b600435906001600160a01b03821682036101fa57565b602435906001600160a01b03821682036101fa57565b90600182811c92168015611f2c575b6020831014611f1857565b634e487b7160e01b5f52602260045260245ffd5b91607f1691611f0d565b61016081019081106001600160401b0382111761095957604052565b602081019081106001600160401b0382111761095957604052565b604081019081106001600160401b0382111761095957604052565b90601f801991011681019081106001600160401b0382111761095957604052565b9060405191825f8254611fbb81611efe565b908184526020946001916001811690815f146120295750600114611feb575b505050611fe992500383611f88565b565b5f90815285812095935091905b818310612011575050611fe993508201015f8080611fda565b85548884018501529485019487945091830191611ff8565b92505050611fe994925060ff191682840152151560051b8201015f8080611fda565b60609060031901126101fa576001600160a01b039060043582811681036101fa579160243590811681036101fa579060443590565b6001600160401b03811161095957601f01601f191660200190565b9291926120a782612080565b916120b56040519384611f88565b8294818452818301116101fa578281602093845f960137010152565b9080601f830112156101fa578160206120ec9335910161209b565b90565b60409060031901126101fa576004356001600160a01b03811681036101fa579060243580151581036101fa5790565b1561212557565b60405162461bcd60e51b815260206004820152602660248201527f436572746966696361646f206e6f20656e636f6e747261646f20656e20656c206044820152653632b233b2b960d11b6064820152608490fd5b6001600160a01b03918216929091831561237657815f526020926002845260409482865f20541615801561236f575b15612317578390815f526002865283875f2054169533151580612285575b5060029087612254575b825f5260038152885f2060018154019055835f5252865f20816bffffffffffffffffffffffff60a01b825416179055857fddf252ad1be2c89b69c2b068fc378daa952ba7f163c4a11628f55a4df523b3ef5f80a416928383036122335750505050565b6064945051926364283d7b60e01b8452600484015260248301526044820152fd5b5f84815260046020526040812080546001600160a01b03191690558881526003825289902080545f190190556121d0565b91925090806122d6575b1561229d579084915f6121c6565b8685876122ba576024915190637e27328960e01b82526004820152fd5b604491519063177e802f60e01b82523360048301526024820152fd5b5033861480156122fb575b8061228f5750845f52600481523384885f2054161461228f565b50855f5260058152865f20335f52815260ff875f2054166122e1565b855162461bcd60e51b815260048101869052602b60248201527f536f756c626f756e643a20656c20636572746966696361646f20657320696e7460448201526a72616e7366657269626c6560a81b6064820152608490fd5b505f6121a8565b604051633250574960e11b81525f6004820152602490fd5b1561239557565b60405162461bcd60e51b815260206004820152602e60248201527f4e6f206572657320756e20656d69736f72206175746f72697a61646f2028526560448201526d63746f722f4469726563746f722960901b6064820152608490fd5b156123f857565b60405162461bcd60e51b815260206004820152601860248201527f456c20636572746966696361646f206e6f2065786973746500000000000000006044820152606490fd5b5f9291815461244b81611efe565b926001918083169081156124a25750600114612468575b50505050565b9091929394505f5260209060205f20905f915b858310612491575050505001905f808080612462565b80548584015291830191810161247b565b60ff191684525050508115159091020191505f808080612462565b5f818152600260205260409020546001600160a01b03169081156124df575090565b60249060405190637e27328960e01b82526004820152fd5b9293909193843b61250a575b5050505050565b604051630a85bd0160e11b8082526001600160a01b03958616600483015293851660248201526044810191909152608060648201526020959490931693929085908290819061255d906084830190611ea0565b03815f885af15f9181612601575b506125ca575050503d5f146125c2573d9161258583612080565b926125936040519485611f88565b83523d5f8285013e5b825192836125bd57604051633250574960e11b815260048101849052602490fd5b019050fd5b60609161259c565b9193506001600160e01b0319909116036125e957505f80808080612503565b60249060405190633250574960e11b82526004820152fd5b9091508581813d831161263a575b6126198183611f88565b810103126101fa57516001600160e01b0319811681036101fa57905f61256b565b503d61260f565b805f917a184f03e93ff9f4daa797ed6e38ed64bf6a1f0100000000000000008082101561279a575b506d04ee2d6d415b85acef81000000008083101561278b575b50662386f26fc100008083101561277c575b506305f5e1008083101561276d575b506127108083101561275e575b50606482101561274e575b600a80921015612744575b60019081602160018601956126da87612080565b966126e86040519889611f88565b8088526126f7601f1991612080565b01366020890137860101905b61270f575b5050505090565b5f19019083906f181899199a1a9b1b9c1cb0b131b232b360811b8282061a83530491821561273f57919082612703565b612708565b91600101916126c6565b91906064600291049101916126bb565b6004919392049101915f6126b0565b6008919392049101915f6126a3565b6010919392049101915f612694565b6020919392049101915f612682565b60409350810491505f612669565b600381101561096d5760028114612815576001146127f2576040516127cc81611f6d565b60168152752832b73234b2b73a32903232902932b1b2b831b4b7b760511b602082015290565b6040516127fe81611f6d565b6007815266566967656e746560c81b602082015290565b5060405161282281611f6d565b60088152675265766f6361646f60c01b602082015290565b80511561296657805191600280840180941161088a57600393849004600281901b91906001600160fe1b0381160361088a5793604051937f4142434445464748494a4b4c4d4e4f505152535455565758595a616263646566601f52603f917f6768696a6b6c6d6e6f707172737475767778797a303132333435363738392b2f603f5260208601928291835184019160208301998a51945f8c525b84811061292a5750505050509060039160209596975251068060011461291557600214612908575b50808452830101604052565b603d905f1901535f6128fc565b50603d90815f1982015360011901535f6128fc565b836004919c95989c019b838d51818160121c165183538181600c1c16516001840153818160061c1651858401531651858201530196939a6128d4565b5060405161297381611f52565b5f81529056fea264697066735822122058f2cf4c4d05430f029dccc75fcb399d204a5d7a2f7805ee8b7ab153c3f8208564736f6c63430008180033",
  "linkReferences": {},
  "deployedLinkReferences": {}
}