{"contracts/AcademicCertificates.sol":{"AcademicCertificates":{"abi":[{"inputs":[],"stateMutability":"nonpayable","type":"constructor"},{"inputs":[{"internalType":"address","name":"sender","type":"address"},{"internalType":"uint256","name":"tokenId","type":"uint256"},{"internalType":"address","name":"owner","type":"address"}],"name":"ERC721IncorrectOwner","type":"error"},{"inputs":[{"internalType":"address","name":"operator","type":"address"},{"internalType":"uint256","name":"tokenId","type":"uint256"}],"name":"ERC721InsufficientApproval","type":"error"},{"inputs":[{"internalType":"address","name":"approver","type":"address"}],"name":"ERC721InvalidApprover","type":"error"},{"inputs":[{"internalType":"address","name":"operator","type":"address"}],"name":"ERC721InvalidOperator","type":"error"},{"inputs":[{"internalType":"address","name":"owner","type":"address"}],"name":"ERC721InvalidOwner","type":"error"},{"inputs":[{"internalType":"address","name":"receiver","type":"address"}],"name":"ERC721InvalidReceiver","type":"error"},{"inputs":[{"internalType":"address","name":"sender","type":"address"}],"name":"ERC721InvalidSender","type":"error"},{"inputs":[{"internalType":"uint256","name":"tokenId","type":"uint256"}],"name":"ERC721NonexistentToken","type":"error"},{"inputs":[{"internalType":"uint256","name":"value","type":"uint256"},{"internalType":"uint256","name":"length","type":"uint256"}],"name":"StringsInsufficientHexLength","type":"error"},{"anonymous":false,"inputs":[{"indexed":true,"internalType":"address","name":"owner","type":"address"},{"indexed":true,"internalType":"address","name":"approved","type":"address"},{"indexed":true,"internalType":"uint256","name":"tokenId","type":"uint256"}],"name":"Approval","type":"event"},{"anonymous":false,"inputs":[{"indexed":true,"internalType":"address","name":"owner","type":"address"},{"indexed":true,"internalType":"address","name":"operator","type":"address"},{"indexed":false,"internalType":"bool","name":"approved","type":"bool"}],"name":"ApprovalForAll","type":"event"},{"anonymous":false,"inputs":[{"indexed":true,"internalType":"bytes32","name":"id","type":"bytes32"},{"indexed":false,"internalType":"string","name":"nombreEstudiante","type":"string"},{"indexed":true,"internalType":"address","name":"emisor","type":"address"},{"indexed":true,"internalType":"address","name":"estudiante","type":"address"}],"name":"LogCertificadoEmitido","type":"event"},{"anonymous":false,"inputs":[{"indexed":true,"internalType":"bytes32","name":"id","type":"bytes32"},{"indexed":false,"internalType":"string","name":"motivo","type":"string"},{"indexed":false,"internalType":"uint256","name":"fechaRevocacion","type":"uint256"}],"name":"LogCertificadoRevocado","type":"event"},{"anonymous":false,"inputs":[{"indexed":true,"internalType":"address","name":"emisor","type":"address"},{"indexed":false,"internalType":"bool","name":"autorizado","type":"bool"}],"name":"LogEmisorModificado","type":"event"},{"anonymous":false,"inputs":[{"indexed":true,"internalType":"bytes32","name":"id","type":"bytes32"},{"indexed":true,"internalType":"address","name":"estudiante","type":"address"},{"indexed":true,"internalType":"uint256","name":"tokenId","type":"uint256"}],"name":"LogNFTMinteado","type":"event"},{"anonymous":false,"inputs":[{"indexed":true,"internalType":"bytes32","name":"id","type":"bytes32"},{"indexed":true,"internalType":"address","name":"estudiante","type":"address"},{"indexed":false,"internalType":"uint256","name":"fechaRecepcion","type":"uint256"}],"name":"LogRecepcionFirmada","type":"event"},{"anonymous":false,"inputs":[{"indexed":true,"internalType":"address","name":"from","type":"address"},{"indexed":true,"internalType":"address","name":"to","type":"address"},{"indexed":true,"internalType":"uint256","name":"tokenId","type":"uint256"}],"name":"Transfer","type":"event"},{"inputs":[{"internalType":"address","name":"to","type":"address"},{"internalType":"uint256","name":"tokenId","type":"uint256"}],"name":"approve","outputs":[],"stateMutability":"nonpayable","type":"function"},{"inputs":[{"internalType":"address","name":"owner","type":"address"}],"name":"balanceOf","outputs":[{"internalType":"uint256","name":"","type":"uint256"}],"stateMutability":"view","type":"function"},{"inputs":[{"internalType":"bytes32","name":"","type":"bytes32"}],"name":"certificados","outputs":[{"internalType":"bytes32","name":"id","type":"bytes32"},{"internalType":"string","name":"codigo","type":"string"},{"internalType":"string","name":"nombreEstudiante","type":"string"},{"internalType":"string","name":"carrera","type":"string"},{"internalType":"uint256","name":"fechaEmision","type":"uint256"},{"internalType":"uint256","name":"fechaRecepcion","type":"uint256"},{"internalType":"address","name":"emisor","type":"address"},{"internalType":"address","name":"estudiante","type":"address"},{"internalType":"enum AcademicCertificates.EstadoCertificado","name":"estado","type":"uint8"},{"internalType":"uint256","name":"fechaRevocacion","type":"uint256"},{"internalType":"string","name":"motivoRevocacion","type":"string"}],"stateMutability":"view","type":"function"},{"inputs":[{"internalType":"bytes32","name":"_hashPDF","type":"bytes32"}],"name":"consultarHistorial","outputs":[{"internalType":"uint256","name":"fechaEmision","type":"uint256"},{"internalType":"uint256","name":"fechaRecepcion","type":"uint256"},{"internalType":"address","name":"emisor","type":"address"},{"internalType":"enum AcademicCertificates.EstadoCertificado","name":"estado","type":"uint8"},{"internalType":"uint256","name":"fechaRevocacion","type":"uint256"},{"internalType":"string","name":"motivoRevocacion","type":"string"}],"stateMutability":"view","type":"function"},{"inputs":[{"internalType":"address","name":"","type":"address"}],"name":"emisoresAutorizados","outputs":[{"internalType":"bool","name":"","type":"bool"}],"stateMutability":"view","type":"function"},{"inputs":[{"internalType":"bytes32","name":"_hashPDF","type":"bytes32"},{"internalType":"string","name":"_codigo","type":"string"},{"internalType":"string","name":"_nombre","type":"string"},{"internalType":"string","name":"_carrera","type":"string"},{"internalType":"address","name":"_estudiante","type":"address"}],"name":"emitirCertificado","outputs":[],"stateMutability":"nonpayable","type":"function"},{"inputs":[{"internalType":"bytes32","name":"_hashPDF","type":"bytes32"}],"name":"firmarRecepcion","outputs":[],"stateMutability":"nonpayable","type":"function"},{"inputs":[{"internalType":"uint256","name":"tokenId","type":"uint256"}],"name":"getApproved","outputs":[{"internalType":"address","name":"","type":"address"}],"stateMutability":"view","type":"function"},{"inputs":[{"internalType":"uint256","name":"","type":"uint256"}],"name":"hashPorToken","outputs":[{"internalType":"bytes32","name":"","type":"bytes32"}],"stateMutability":"view","type":"function"},{"inputs":[{"internalType":"address","name":"owner","type":"address"},{"internalType":"address","name":"operator","type":"address"}],"name":"isApprovedForAll","outputs":[{"internalType":"bool","name":"","type":"bool"}],"stateMutability":"view","type":"function"},{"inputs":[],"name":"name","outputs":[{"internalType":"string","name":"","type":"string"}],"stateMutability":"view","type":"function"},{"inputs":[{"internalType":"address","name":"_emisor","type":"address"},{"internalType":"bool","name":"_autorizado","type":"bool"}],"name":"ordenarEmisor","outputs":[],"stateMutability":"nonpayable","type":"function"},{"inputs":[],"name":"owner","outputs":[{"internalType":"address","name":"","type":"address"}],"stateMutability":"view","type":"function"},{"inputs":[{"internalType":"uint256","name":"tokenId","type":"uint256"}],"name":"ownerOf","outputs":[{"internalType":"address","name":"","type":"address"}],"stateMutability":"view","type":"function"},{"inputs":[{"internalType":"bytes32","name":"_hashPDF","type":"bytes32"},{"internalType":"string","name":"_motivo","type":"string"}],"name":"revocarCertificado","outputs":[],"stateMutability":"nonpayable","type":"function"},{"inputs":[{"internalType":"address","name":"from","type":"address"},{"internalType":"address","name":"to","type":"address"},{"internalType":"uint256","name":"tokenId","type":"uint256"}],"name":"safeTransferFrom","outputs":[],"stateMutability":"nonpayable","type":"function"},{"inputs":[{"internalType":"address","name":"from","type":"address"},{"internalType":"address","name":"to","type":"address"},{"internalType":"uint256","name":"tokenId","type":"uint256"},{"internalType":"bytes","name":"data","type":"bytes"}],"name":"safeTransferFrom","outputs":[],"stateMutability":"nonpayable","type":"function"},{"inputs":[{"internalType":"address","name":"operator","type":"address"},{"internalType":"bool","name":"approved","type":"bool"}],"name":"setApprovalForAll","outputs":[],"stateMutability":"nonpayable","type":"function"},{"inputs":[{"internalType":"bytes4","name":"interfaceId","type":"bytes4"}],"name":"supportsInterface","outputs":[{"internalType":"bool","name":"","type":"bool"}],"stateMutability":"view","type":"function"},{"inputs":[],"name":"symbol","outputs":[{"internalType":"string","name":"","type":"string"}],"stateMutability":"view","type":"function"},{"inputs":[{"internalType":"bytes32","name":"","type":"bytes32"}],"name":"tokenPorHash","outputs":[{"internalType":"uint256","name":"","type":"uint256"}],"stateMutability":"view","type":"function"},{"inputs":[{"internalType":"uint256","name":"tokenId","type":"uint256"}],"name":"tokenURI","outputs":[{"internalType":"string","name":"","type":"string"}],"stateMutability":"view","type":"function"},{"inputs":[{"internalType":"address","name":"from","type":"address"},{"internalType":"address","name":"to","type":"address"},{"internalType":"uint256","name":"tokenId","type":"uint256"}],"name":"transferFrom","outputs":[],"stateMutability":"nonpayable","type":"function"},{"inputs":[{"internalType":"bytes32","name":"_hashPDF","type":"bytes32"}],"name":"verificarCertificado","outputs":[{"components":[{"internalType":"bytes32","name":"id","type":"bytes32"},{"internalType":"string","name":"codigo","type":"string"},{"internalType":"string","name":"nombreEstudiante","type":"string"},{"internalType":"string","name":"carrera","type":"string"},{"internalType":"uint256","name":"fechaEmision","type":"uint256"},{"internalType":"uint256","name":"fechaRecepcion","type":"uint256"},{"internalType":"address","name":"emisor","type":"address"},{"internalType":"address","name":"estudiante","type":"address"},{"internalType":"enum AcademicCertificates.EstadoCertificado","name":"estado","type":"uint8"},{"internalType":"uint256","name":"fechaRevocacion","type":"uint256"},{"internalType":"string","name":"motivoRevocacion","type":"string"}],"internalType":"struct AcademicCertificates.Certificate","name":"","type":"tuple"}],"stateMutability":"view","type":"function"}],"evm":{"bytecode":{"linkReferences":{},"object":"60803462000319576040906001600160401b038183018181118382101762000237578352601e82526020907f436572746966696361646f2041636164656d69636f20554e4956414c4c4500008284015283518481018181108382111762000237578552600681526521a2a92a2aab60d11b8382015283519082821162000237575f54916001958684811c941680156200030e575b8685101462000218578190601f94858111620002bb575b50869085831160011462000257575f926200024b575b50505f19600383901b1c191690861b175f555b8051928311620002375784548581811c911680156200022c575b858210146200021857828111620001d0575b5083918311600114620001695760079392915f91836200015d575b50505f19600383901b1c191690841b1783555b3360018060a01b03196006541617600655335f5252815f209060ff19825416179055516129af90816200031e8239f35b015190505f806200011a565b9184919392601f19821694835f52845f20915f5b878110620001b8575083600797106200019f575b505050811b0183556200012d565b01515f1960f88460031b161c191690555f808062000191565b8282015184558895909301929186019186016200017d565b855f52845f208380860160051c8201928787106200020e575b0160051c019086905b82811062000202575050620000ff565b5f8155018690620001f2565b92508192620001e9565b634e487b7160e01b5f52602260045260245ffd5b90607f1690620000ed565b634e487b7160e01b5f52604160045260245ffd5b015190505f80620000c0565b90889350601f198316915f8052885f20925f5b8a828210620002a457505084116200028b575b505050811b015f55620000d3565b01515f1960f88460031b161c191690555f80806200027d565b8385015186558c979095019493840193016200026a565b9091505f8052865f208580850160051c82019289861062000304575b918a91869594930160051c01915b828110620002f5575050620000aa565b5f81558594508a9101620002e5565b92508192620002d7565b93607f169362000093565b5f80fdfe6080806040526004361015610012575f80fd5b5f3560e01c90816301ffc9a714611e145750806306fdde0314611d6d5780630800ba3f14611b6a578063081812fc14611b2e578063095ea7b314611a4d5780630c188b4c14611a235780630db16eca146119f957806311b09380146118f657806323b872dd146118df57806342842e0e146118b25780634a7546361461165f5780636352211e1461162f57806368cad01c146115f257806370a082311461159c578063796bf795146115035780638da5cb5b146114db57806395d89b41146113fd578063a22cb4651461134c578063b88d4fde146112df578063c87b56dd14610e0a578063e8e0909d14610ca1578063e985e9c514610c4f578063ee666da0146101fe5763f617836914610124575f80fd5b346101fa57610132366120ef565b60065490916001600160a01b03918216330361019a577fe40cb3fa3e52fdb62f45b56c4fe552f5ae8638bbeaa13fc66ebac5cbc9de58b2916020911692835f526007825261018f8160405f209060ff801983541691151516179055565b6040519015158152a2005b60405162461bcd60e51b815260206004820152603260248201527f536f6c6f20656c2070726f706965746172696f206465206c61204441707020706044820152717565646520656a656375746172206573746f60701b6064820152608490fd5b5f80fd5b346101fa5760a03660031901126101fa576024356001600160401b0381116101fa5761022e9036906004016120d1565b6044356001600160401b0381116101fa5761024d9036906004016120d1565b906064356001600160401b0381116101fa5761026d9036906004016120d1565b6084356001600160a01b03811690036101fa57335f52600760205261029860ff60405f20541661238e565b6004355f52600860205260405f2054610bf3576084356001600160a01b031615610baf57604051916102c983611f36565b6004358352602083015282604083015260608201524260808201525f60a08201523360c082015260018060a01b036084351660e08201525f6101008201525f61012082015260405161031a81611f52565b5f81526101408201526004355f52600860205260405f20908051825560208101519283516001600160401b038111610959576103596001850154611efe565b601f8111610b6b575b506020601f8211600114610b005781929394955f92610af5575b50508160011b915f199060031b1c19161760018401555b60408201519283516001600160401b038111610959576103b66002830154611efe565b601f8111610ab1575b506020601f8211600114610a465781929394955f92610a3b575b50508160011b915f199060031b1c19161760028201555b60608301519283516001600160401b038111610959576104136003840154611efe565b601f81116109f7575b506020601f821160011461098c5781929394955f92610981575b50508160011b915f199060031b1c19161760038301555b6080810151600483015560a0810151600583015560c08101516006830180546001600160a01b0319166001600160a01b0392831617905560e082015160078401805461010085015194939192909116600385101561096d576101409460ff60a01b9060a01b16916affffffffffffffffffffff60a81b1617179055610120810151600884015501518051906001600160401b038211610959576104f36009840154611efe565b601f8111610915575b50602090601f83116001146108a957600992915f918361089e575b50508160011b915f199060031b1c1916179101555b6040516020815260018060a01b0360843516917f074d3c61968abdbcc520c81f8b8ef54a73c2216b63af4b78d30eb411dbafddc3339280610574600435946020830190611ea0565b0390a46009545f199081811461088a576001019081600955815f52600a60205260043560405f20556004355f52600b6020528160405f2055604051906105b982611f52565b5f808352838152600260205260409020546001600160a01b0316158015610883575b1561082a575f838152600260205260409020546001600160a01b031680151591849190836107f7575b506084356001600160a01b03165f818152600360209081526040808320805460010190558583526002909152812080546001600160a01b031916831790559091907fddf252ad1be2c89b69c2b068fc378daa952ba7f163c4a11628f55a4df523b3ef9080a46107df576084353b6106ac575b506084356001600160a01b03166004357f01aa79ba8a77bf7910f8b1d448a5ad2f6d0758b055e8a01a8878c7b2b0eac7bc5f80a4005b604051602081806106e5630a85bd0160e11b958683523360048401525f6024840152876044840152608060648401526084830190611ea0565b03815f6084356001600160a01b03165af15f918161079a575b50610762573d1561075b573d61071381612080565b906107216040519283611f88565b81523d5f602083013e5b8051908161075657604051633250574960e11b81526084356001600160a01b03166004820152602490fd5b602001fd5b606061072b565b6001600160e01b031916036107775781610676565b604051633250574960e11b81526084356001600160a01b03166004820152602490fd5b9091506020813d6020116107d7575b816107b660209383611f88565b810103126101fa57516001600160e01b0319811681036101fa5790846106fe565b3d91506107a9565b6040516339e3563760e11b81525f6004820152602490fd5b5f83815260046020526040902080546001600160a01b0319169055815f52600360205260405f2090815401905585610604565b60405162461bcd60e51b815260206004820152602b60248201527f536f756c626f756e643a20656c20636572746966696361646f20657320696e7460448201526a72616e7366657269626c6560a81b6064820152608490fd5b505f6105db565b634e487b7160e01b5f52601160045260245ffd5b015190508580610517565b90600984015f5260205f20915f5b601f19851681106108fd5750918391600193600995601f198116106108e5575b505050811b0191015561052c565b01515f1960f88460031b161c191690558580806108d7565b919260206001819286850151815501940192016108b7565b600984015f5260205f20601f840160051c810160208510610952575b601f830160051c820181106109475750506104fc565b5f8155600101610931565b5080610931565b634e487b7160e01b5f52604160045260245ffd5b634e487b7160e01b5f52602160045260245ffd5b015190508580610436565b600384015f5260205f20905f5b601f19841681106109df575060019394959683601f198116106109c7575b505050811b01600383015561044d565b01515f1960f88460031b161c191690558580806109b7565b9091602060018192858b015181550193019101610999565b600384015f5260205f20601f830160051c810160208410610a34575b601f830160051c82018110610a2957505061041c565b5f8155600101610a13565b5080610a13565b0151905085806103d9565b600283015f5260205f20905f5b601f1984168110610a99575060019394959683601f19811610610a81575b505050811b0160028201556103f0565b01515f1960f88460031b161c19169055858080610a71565b9091602060018192858b015181550193019101610a53565b600283015f5260205f20601f830160051c810160208410610aee575b601f830160051c82018110610ae35750506103bf565b5f8155600101610acd565b5080610acd565b01519050858061037c565b600185015f5260205f20905f5b601f1984168110610b53575060019394959683601f19811610610b3b575b505050811b016001840155610393565b01515f1960f88460031b161c19169055858080610b2b565b9091602060018192858b015181550193019101610b0d565b600185015f5260205f20601f830160051c810160208410610ba8575b601f830160051c82018110610b9d575050610362565b5f8155600101610b87565b5080610b87565b606460405162461bcd60e51b815260206004820152602060248201527f446972656363696f6e20646520657374756469616e746520696e76616c6964616044820152fd5b60405162461bcd60e51b815260206004820152602e60248201527f456c2068617368206465206573746520636572746966696361646f207961206560448201526d737461207265676973747261646f60901b6064820152608490fd5b346101fa5760403660031901126101fa57610c68611ed2565b610c70611ee8565b9060018060a01b038091165f52600560205260405f2091165f52602052602060ff60405f2054166040519015158152f35b346101fa5760203660031901126101fa57600435805f52600860205260405f20610ccd815415156123f1565b6007810180546001600160a01b0381163303610da75760ff8160a01c16600381101561096d57610d3c57600160a01b9060ff60a01b1916179055600542910155604051904282527ff0e88fe41174c278d186ef86d0e72515e6800013f0e803fa1cddf0e742ac30c260203393a3005b60405162461bcd60e51b815260206004820152603b60248201527f456c20636572746966696361646f206e6f2065737461206c6973746f2070617260448201527f61206669726d6172206f207961206675652070726f63657361646f00000000006064820152608490fd5b60405162461bcd60e51b815260206004820152603560248201527f536f6c6f20656c20657374756469616e746520617369676e61646f207075656460448201527432903334b936b0b9103630903932b1b2b831b4b7b760591b6064820152608490fd5b346101fa576020806003193601126101fa57600435610e28816124bd565b50805f52600a825260405f20545f5260088252610e4860405f2091612641565b6002820191610e5a6004820154612641565b600182548060405191608083018381106001600160401b0382111761095957604052604283528883019360603686378351156112cb57603085538351600110156112cb57607860218501536041905b8082116112845750506112665750600784015460a01c60ff16610ecb906127a8565b936040519687968988017f7b226e616d65223a22436572746966696361646f2041636164656d69636f20239052805190818b60408b01920191610f0d92611e7f565b8701604081016201016960ed1b9052604301610f29908261243d565b7f222c226465736372697074696f6e223a22546974756c6f2061636164656d696381527f6f20656d697469646f2079207665726966696361646f206f6e2d636861696e208a8201527f706f7220554e4956414c4c452e204e465420736f756c626f756e6420286e6f2060408201526f1d1c985b9cd9995c9a589b194a4b888b60821b60608201526d2261747472696275746573223a5b60901b60708201527f7b2274726169745f74797065223a22457374756469616e7465222c2276616c75607e8201526332911d1160e11b609e8201526110099160a29091019061243d565b9362089f4b60ea1b94858152600381017f7b2274726169745f74797065223a2243617272657261222c2276616c7565223a9052601160f91b602382015260240160038301906110579161243d565b8581527f7b2274726169745f74797065223a22556e697665727369646164222c2276616c60038201527f7565223a22556e6976657273696461642064656c2056616c6c652028554e4956602382015267105313114a489f4b60c21b60438201527f7b2274726169745f74797065223a22466563686120646520456d6973696f6e22604b8201526916113b30b63ab2911d1160b11b606b82015281519161110590839060758401908d01611e7f565b01846075820152607881017f7b2274726169745f74797065223a22436f6469676f222c2276616c7565223a22905260980190600101906111449161243d565b90838252600382017f7b2274726169745f74797065223a2248617368222c2276616c7565223a22000090525191826021830161117f92611e7f565b01906021820152602481017f7b2274726169745f74797065223a2245737461646f222c2276616c7565223a2290528151918286604484019201916111c292611e7f565b0161227d60f01b604482015260468101615d7d60f01b9052036028810182526048016111ee9082611f88565b6111f79061283a565b9060405180928282017f646174613a6170706c69636174696f6e2f6a736f6e3b6261736536342c00000090528051908184603d850192019161123892611e7f565b810103601d81018352603d0161124e9083611f88565b604051918183928352820161126291611ea0565b0390f35b604490886040519163e22e27eb60e01b835260048301526024820152fd5b9091600f811660108110156112cb5785518410156112cb576f181899199a1a9b1b9c1cb0b131b232b360811b901a8584018c015360041c91801561088a575f190190610ea9565b634e487b7160e01b5f52603260045260245ffd5b346101fa5760803660031901126101fa576112f8611ed2565b611300611ee8565b90604435606435926001600160401b0384116101fa57366023850112156101fa5761133861134a94369060248160040135910161209b565b92611344838383612179565b336124f7565b005b346101fa5761135a366120ef565b9033156113e5576001600160a01b03169081156113cc57335f52600560205260405f20825f5260205261139c8160405f209060ff801983541691151516179055565b60405190151581527f17307eab39ab6107e8899845ad3d59bd9653f200f220920489ca2b5937696c3160203392a3005b604051630b61174360e31b815260048101839052602490fd5b60405163a9fbf51f60e01b81525f6004820152602490fd5b346101fa575f3660031901126101fa576040515f6001826001549261142184611efe565b92838352602094856001821691825f146114bb575050600114611460575b5061144c92500383611f88565b611262604051928284938452830190611ea0565b84915060015f527fb10e2d527612073b26eecdfd717e6a320cf44b4afac2b0732d9fcbe2b7fa0cf6905f915b8583106114a357505061144c93508201018561143f565b8054838901850152879450869390920191810161148c565b60ff19168582015261144c95151560051b850101925087915061143f9050565b346101fa575f3660031901126101fa576006546040516001600160a01b039091168152602090f35b346101fa5760203660031901126101fa576004355f52600860205260405f2061152e8154151561211e565b600481015461126260058301549260018060a01b03600682015416906115866007820154611563600960088501549401611fa9565b9360405197889788526020880152604087015260ff606087019160a01c16611ec5565b608084015260c060a084015260c0830190611ea0565b346101fa5760203660031901126101fa576001600160a01b036115bd611ed2565b1680156115da575f526003602052602060405f2054604051908152f35b6040516322718ad960e21b81525f6004820152602490fd5b346101fa5760203660031901126101fa576001600160a01b03611613611ed2565b165f526007602052602060ff60405f2054166040519015158152f35b346101fa5760203660031901126101fa57602061164d6004356124bd565b6040516001600160a01b039091168152f35b346101fa5760403660031901126101fa576004356001600160401b036024358181116101fa576116939036906004016120d1565b90335f52602090600782526116ae60ff60405f20541661238e565b835f526008825260405f206116c5815415156123f1565b60078101805460ff8160a01c16600381101561096d5760021461185d5760ff60a01b1916600160a11b1790554260088201558351600991909101918111610959576117108254611efe565b601f811161181a575b5082601f821160011461179457918161177e94927f33567e9e655cb32d8944763b8e785872f05e07d4fc375c7818f33b3ec24e892496945f91611789575b508160011b915f199060031b1c19161790555b604051928392604084526040840190611ea0565b9042908301520390a2005b905084015188611757565b601f19821690835f52845f20915f5b8181106118035750927f33567e9e655cb32d8944763b8e785872f05e07d4fc375c7818f33b3ec24e89249694926001928261177e9896106117eb575b5050811b01905561176a565b8601515f1960f88460031b161c1916905588806117df565b91928660018192868b0151815501940192016117a3565b825f52835f20601f830160051c810191858410611853575b601f0160051c01905b8181106118485750611719565b5f815560010161183b565b9091508190611832565b60405162461bcd60e51b815260048101869052602760248201527f456c20636572746966696361646f20796120736520656e6375656e747261207260448201526665766f6361646f60c81b6064820152608490fd5b346101fa5761134a6118c33661204b565b90604051926118d184611f52565b5f8452611344838383612179565b346101fa5761134a6118f03661204b565b91612179565b346101fa5760203660031901126101fa576004355f52600860205260405f2080546001820161192490611fa9565b9161193160028201611fa9565b9061193e60038201611fa9565b906004810154916005820154600160a01b6001900390816006850154169060078501549360088601549560090161197490611fa9565b976040519a8b9a610160908c528060208d01528b0161199291611ea0565b8a810360408c01526119a391611ea0565b89810360608b01526119b491611ea0565b95608089015260a088015260c0870152811660e086015261010085019060a01c60ff16906119e191611ec5565b61012084015282810361014084015261126291611ea0565b346101fa5760203660031901126101fa576004355f52600a602052602060405f2054604051908152f35b346101fa5760203660031901126101fa576004355f52600b602052602060405f2054604051908152f35b346101fa5760403660031901126101fa57611a66611ed2565b602435611a72816124bd565b33151580611b1b575b80611af2575b611ada576001600160a01b039283169282918491167f8c5be1e5ebec7d5bd14f71427d1e84f3dd0314c0f7b2291e5b200ac8c7c3b9255f80a45f90815260046020526040902080546001600160a01b0319169091179055005b60405163a9fbf51f60e01b8152336004820152602490fd5b5060018060a01b0381165f52600560205260405f20335f5260205260ff60405f20541615611a81565b506001600160a01b038116331415611a7b565b346101fa5760203660031901126101fa57600435611b4b816124bd565b505f526004602052602060018060a01b0360405f205416604051908152f35b346101fa5760203660031901126101fa576004356060610140604051611b8f81611f36565b5f815282602082015282604082015282808201525f60808201525f60a08201525f60c08201525f60e08201525f6101008201525f6101208201520152805f526008602052611be260405f2054151561211e565b5f52600860205260405f20604051611bf981611f36565b81548152611c0960018301611fa9565b6020820152611c1a60028301611fa9565b6040820152611c2b60038301611fa9565b606082015260048201546080820152600582015460a08083019190915260068301546001600160a01b0390811660c0840152600784015490811660e0840152901c60ff1691600383101561096d576009611c9a9161126294610100850152600881015461012085015201611fa9565b6101408201526040519182916020835280516020840152610140611d01611ceb611cd560208501516101606040890152610180880190611ea0565b6040850151878203601f19016060890152611ea0565b6060840151868203601f19016080880152611ea0565b91608081015160a086015260a081015160c086015260018060a01b0360c08201511660e086015260018060a01b0360e082015116610100860152611d4f610100820151610120870190611ec5565b610120810151858301520151838203601f1901610160850152611ea0565b346101fa575f3660031901126101fa576040515f80549082611d8e83611efe565b91828252602093600190856001821691825f146114bb575050600114611dbb575061144c92500383611f88565b5f808052859250907f290decd9548b62a8d60345a988386fc84ba6bc95484008f6362f93160ef3e5635b858310611dfc57505061144c93508201018561143f565b80548389018501528794508693909201918101611de5565b346101fa5760203660031901126101fa576004359063ffffffff60e01b82168092036101fa576020916380ac58cd60e01b8114908115611e6e575b8115611e5d575b5015158152f35b6301ffc9a760e01b14905083611e56565b635b5e139f60e01b81149150611e4f565b5f5b838110611e905750505f910152565b8181015183820152602001611e81565b90602091611eb981518092818552858086019101611e7f565b601f01601f1916010190565b90600382101561096d5752565b600435906001600160a01b03821682036101fa57565b602435906001600160a01b03821682036101fa57565b90600182811c92168015611f2c575b6020831014611f1857565b634e487b7160e01b5f52602260045260245ffd5b91607f1691611f0d565b61016081019081106001600160401b0382111761095957604052565b602081019081106001600160401b0382111761095957604052565b604081019081106001600160401b0382111761095957604052565b90601f801991011681019081106001600160401b0382111761095957604052565b9060405191825f8254611fbb81611efe565b908184526020946001916001811690815f146120295750600114611feb575b505050611fe992500383611f88565b565b5f90815285812095935091905b818310612011575050611fe993508201015f8080611fda565b85548884018501529485019487945091830191611ff8565b92505050611fe994925060ff191682840152151560051b8201015f8080611fda565b60609060031901126101fa576001600160a01b039060043582811681036101fa579160243590811681036101fa579060443590565b6001600160401b03811161095957601f01601f191660200190565b9291926120a782612080565b916120b56040519384611f88565b8294818452818301116101fa578281602093845f960137010152565b9080601f830112156101fa578160206120ec9335910161209b565b90565b60409060031901126101fa576004356001600160a01b03811681036101fa579060243580151581036101fa5790565b1561212557565b60405162461bcd60e51b815260206004820152602660248201527f436572746966696361646f206e6f20656e636f6e747261646f20656e20656c206044820152653632b233b2b960d11b6064820152608490fd5b6001600160a01b03918216929091831561237657815f526020926002845260409482865f20541615801561236f575b15612317578390815f526002865283875f2054169533151580612285575b5060029087612254575b825f5260038152885f2060018154019055835f5252865f20816bffffffffffffffffffffffff60a01b825416179055857fddf252ad1be2c89b69c2b068fc378daa952ba7f163c4a11628f55a4df523b3ef5f80a416928383036122335750505050565b6064945051926364283d7b60e01b8452600484015260248301526044820152fd5b5f84815260046020526040812080546001600160a01b03191690558881526003825289902080545f190190556121d0565b91925090806122d6575b1561229d579084915f6121c6565b8685876122ba576024915190637e27328960e01b82526004820152fd5b604491519063177e802f60e01b82523360048301526024820152fd5b5033861480156122fb575b8061228f5750845f52600481523384885f2054161461228f565b50855f5260058152865f20335f52815260ff875f2054166122e1565b855162461bcd60e51b815260048101869052602b60248201527f536f756c626f756e643a20656c20636572746966696361646f20657320696e7460448201526a72616e7366657269626c6560a81b6064820152608490fd5b505f6121a8565b604051633250574960e11b81525f6004820152602490fd5b1561239557565b60405162461bcd60e51b815260206004820152602e60248201527f4e6f206572657320756e20656d69736f72206175746f72697a61646f2028526560448201526d63746f722f4469726563746f722960901b6064820152608490fd5b156123f857565b60405162461bcd60e51b815260206004820152601860248201527f456c20636572746966696361646f206e6f2065786973746500000000000000006044820152606490fd5b5f9291815461244b81611efe565b926001918083169081156124a25750600114612468575b50505050565b9091929394505f5260209060205f20905f915b858310612491575050505001905f808080612462565b80548584015291830191810161247b565b60ff191684525050508115159091020191505f808080612462565b5f818152600260205260409020546001600160a01b03169081156124df575090565b60249060405190637e27328960e01b82526004820152fd5b9293909193843b61250a575b5050505050565b604051630a85bd0160e11b8082526001600160a01b03958616600483015293851660248201526044810191909152608060648201526020959490931693929085908290819061255d906084830190611ea0565b03815f885af15f9181612601575b506125ca575050503d5f146125c2573d9161258583612080565b926125936040519485611f88565b83523d5f8285013e5b825192836125bd57604051633250574960e11b815260048101849052602490fd5b019050fd5b60609161259c565b9193506001600160e01b0319909116036125e957505f80808080612503565b60249060405190633250574960e11b82526004820152fd5b9091508581813d831161263a575b6126198183611f88565b810103126101fa57516001600160e01b0319811681036101fa57905f61256b565b503d61260f565b805f917a184f03e93ff9f4daa797ed6e38ed64bf6a1f0100000000000000008082101561279a575b506d04ee2d6d415b85acef81000000008083101561278b575b50662386f26fc100008083101561277c575b506305f5e1008083101561276d575b506127108083101561275e575b50606482101561274e575b600a80921015612744575b60019081602160018601956126da87612080565b966126e86040519889611f88565b8088526126f7601f1991612080565b01366020890137860101905b61270f575b5050505090565b5f19019083906f181899199a1a9b1b9c1cb0b131b232b360811b8282061a83530491821561273f57919082612703565b612708565b91600101916126c6565b91906064600291049101916126bb565b6004919392049101915f6126b0565b6008919392049101915f6126a3565b6010919392049101915f612694565b6020919392049101915f612682565b60409350810491505f612669565b600381101561096d5760028114612815576001146127f2576040516127cc81611f6d565b60168152752832b73234b2b73a32903232902932b1b2b831b4b7b760511b602082015290565b6040516127fe81611f6d565b6007815266566967656e746560c81b602082015290565b5060405161282281611f6d565b60088152675265766f6361646f60c01b602082015290565b80511561296657805191600280840180941161088a57600393849004600281901b91906001600160fe1b0381160361088a5793604051937f4142434445464748494a4b4c4d4e4f505152535455565758595a616263646566601f52603f917f6768696a6b6c6d6e6f707172737475767778797a303132333435363738392b2f603f5260208601928291835184019160208301998a51945f8c525b84811061292a5750505050509060039160209596975251068060011461291557600214612908575b50808452830101604052565b603d905f1901535f6128fc565b50603d90815f1982015360011901535f6128fc565b836004919c95989c019b838d51818160121c165183538181600c1c16516001840153818160061c1651858401531651858201530196939a6128d4565b5060405161297381611f52565b5f81529056fea264697066735822122058f2cf4c4d05430f029dccc75fcb399d204a5d7a2f7805ee8b7ab153c3f8208564736f6c63430008180033","opcodes":"PUSH1 0x80 CALLVALUE PUSH3 0x319 JUMPI PUSH1 0x40 SWAP1 PUSH1 0x1 PUSH1 0x1 PUSH1 0x40 SHL SUB DUP2 DUP4 ADD DUP2 DUP2 GT DUP4 DUP3 LT OR PUSH3 0x237 JUMPI DUP4 MSTORE PUSH1 0x1E DUP3 MSTORE PUSH1 0x20 SWAP1 PUSH32 0x436572746966696361646F2041636164656D69636F20554E4956414C4C450000 DUP3 DUP5 ADD MSTORE DUP4 MLOAD DUP5 DUP2 ADD DUP2 DUP2 LT DUP4 DUP3 GT OR PUSH3 0x237 JUMPI DUP6 MSTORE PUSH1 0x6 DUP2 MSTORE PUSH6 0x21A2A92A2AAB PUSH1 0xD1 SHL DUP4 DUP3 ADD MSTORE DUP4 MLOAD SWAP1 DUP3 DUP3 GT PUSH3 0x237 JUMPI PUSH0 SLOAD SWAP2 PUSH1 0x1 SWAP6 DUP7 DUP5 DUP2 SHR SWAP5 AND DUP1 ISZERO PUSH3 0x30E JUMPI JUMPDEST DUP7 DUP6 LT EQ PUSH3 0x218 JUMPI DUP2 SWAP1 PUSH1 0x1F SWAP5 DUP6 DUP2 GT PUSH3 0x2BB JUMPI JUMPDEST POP DUP7 SWAP1 DUP6 DUP4 GT PUSH1 0x1 EQ PUSH3 0x257 JUMPI PUSH0 SWAP3 PUSH3 0x24B JUMPI JUMPDEST POP POP PUSH0 NOT PUSH1 0x3 DUP4 SWAP1 SHL SHR NOT AND SWAP1 DUP7 SHL OR PUSH0 SSTORE JUMPDEST DUP1 MLOAD SWAP3 DUP4 GT PUSH3 0x237 JUMPI DUP5 SLOAD DUP6 DUP2 DUP2 SHR SWAP2 AND DUP1 ISZERO PUSH3 0x22C JUMPI JUMPDEST DUP6 DUP3 LT EQ PUSH3 0x218 JUMPI DUP3 DUP2 GT PUSH3 0x1D0 JUMPI JUMPDEST POP DUP4 SWAP2 DUP4 GT PUSH1 0x1 EQ PUSH3 0x169 JUMPI PUSH1 0x7 SWAP4 SWAP3 SWAP2 PUSH0 SWAP2 DUP4 PUSH3 0x15D JUMPI JUMPDEST POP POP PUSH0 NOT PUSH1 0x3 DUP4 SWAP1 SHL SHR NOT AND SWAP1 DUP5 SHL OR DUP4 SSTORE JUMPDEST CALLER PUSH1 0x1 DUP1 PUSH1 0xA0 SHL SUB NOT PUSH1 0x6 SLOAD AND OR PUSH1 0x6 SSTORE CALLER PUSH0 MSTORE MSTORE DUP2 PUSH0 KECCAK256 SWAP1 PUSH1 0xFF NOT DUP3 SLOAD AND OR SWAP1 SSTORE MLOAD PUSH2 0x29AF SWAP1 DUP2 PUSH3 0x31E DUP3 CODECOPY RETURN JUMPDEST ADD MLOAD SWAP1 POP PUSH0 DUP1 PUSH3 0x11A JUMP JUMPDEST SWAP2 DUP5 SWAP2 SWAP4 SWAP3 PUSH1 0x1F NOT DUP3 AND SWAP5 DUP4 PUSH0 MSTORE DUP5 PUSH0 KECCAK256 SWAP2 PUSH0 JUMPDEST DUP8 DUP2 LT PUSH3 0x1B8 JUMPI POP DUP4 PUSH1 0x7 SWAP8 LT PUSH3 0x19F JUMPI JUMPDEST POP POP POP DUP2 SHL ADD DUP4 SSTORE PUSH3 0x12D JUMP JUMPDEST ADD MLOAD PUSH0 NOT PUSH1 0xF8 DUP5 PUSH1 0x3 SHL AND SHR NOT AND SWAP1 SSTORE PUSH0 DUP1 DUP1 PUSH3 0x191 JUMP JUMPDEST DUP3 DUP3 ADD MLOAD DUP5 SSTORE DUP9 SWAP6 SWAP1 SWAP4 ADD SWAP3 SWAP2 DUP7 ADD SWAP2 DUP7 ADD PUSH3 0x17D JUMP JUMPDEST DUP6 PUSH0 MSTORE DUP5 PUSH0 KECCAK256 DUP4 DUP1 DUP7 ADD PUSH1 0x5 SHR DUP3 ADD SWAP3 DUP8 DUP8 LT PUSH3 0x20E JUMPI JUMPDEST ADD PUSH1 0x5 SHR ADD SWAP1 DUP7 SWAP1 JUMPDEST DUP3 DUP2 LT PUSH3 0x202 JUMPI POP POP PUSH3 0xFF JUMP JUMPDEST PUSH0 DUP2 SSTORE ADD DUP7 SWAP1 PUSH3 0x1F2 JUMP JUMPDEST SWAP3 POP DUP2 SWAP3 PUSH3 0x1E9 JUMP JUMPDEST PUSH4 0x4E487B71 PUSH1 0xE0 SHL PUSH0 MSTORE PUSH1 0x22 PUSH1 0x4 MSTORE PUSH1 0x24 PUSH0 REVERT JUMPDEST SWAP1 PUSH1 0x7F AND SWAP1 PUSH3 0xED JUMP JUMPDEST PUSH4 0x4E487B71 PUSH1 0xE0 SHL PUSH0 MSTORE PUSH1 0x41 PUSH1 0x4 MSTORE PUSH1 0x24 PUSH0 REVERT JUMPDEST ADD MLOAD SWAP1 POP PUSH0 DUP1 PUSH3 0xC0 JUMP JUMPDEST SWAP1 DUP9 SWAP4 POP PUSH1 0x1F NOT DUP4 AND SWAP2 PUSH0 DUP1 MSTORE DUP9 PUSH0 KECCAK256 SWAP3 PUSH0 JUMPDEST DUP11 DUP3 DUP3 LT PUSH3 0x2A4 JUMPI POP POP DUP5 GT PUSH3 0x28B JUMPI JUMPDEST POP POP POP DUP2 SHL ADD PUSH0 SSTORE PUSH3 0xD3 JUMP JUMPDEST ADD MLOAD PUSH0 NOT PUSH1 0xF8 DUP5 PUSH1 0x3 SHL AND SHR NOT AND SWAP1 SSTORE PUSH0 DUP1 DUP1 PUSH3 0x27D JUMP JUMPDEST DUP4 DUP6 ADD MLOAD DUP7 SSTORE DUP13 SWAP8 SWAP1 SWAP6 ADD SWAP5 SWAP4 DUP5 ADD SWAP4 ADD PUSH3 0x26A JUMP JUMPDEST SWAP1 SWAP2 POP PUSH0 DUP1 MSTORE DUP7 PUSH0 KECCAK256 DUP6 DUP1 DUP6 ADD PUSH1 0x5 SHR DUP3 ADD SWAP3 DUP10 DUP7 LT PUSH3 0x304 JUMPI JUMPDEST SWAP2 DUP11 SWAP2 DUP7 SWAP6 SWAP5 SWAP4 ADD PUSH1 0x5 SHR ADD SWAP2 JUMPDEST DUP3 DUP2 LT PUSH3 0x2F5 JUMPI POP POP PUSH3 0xAA JUMP JUMPDEST PUSH0 DUP2 SSTORE DUP6 SWAP5 POP DUP11 SWAP2 ADD PUSH3 0x2E5 JUMP JUMPDEST SWAP3 POP DUP2 SWAP3 PUSH3 0x2D7 JUMP JUMPDEST SWAP4 PUSH1 0x7F AND SWAP4 PUSH3 0x93 JUMP JUMPDEST PUSH0 DUP1 REVERT INVALID PUSH1 0x80 DUP1 PUSH1 0x40 MSTORE PUSH1 0x4 CALLDATASIZE LT ISZERO PUSH2 0x12 JUMPI PUSH0 DUP1 REVERT JUMPDEST PUSH0 CALLDATALOAD PUSH1 0xE0 SHR SWAP1 DUP2 PUSH4 0x1FFC9A7 EQ PUSH2 0x1E14 JUMPI POP DUP1 PUSH4 0x6FDDE03 EQ PUSH2 0x1D6D JUMPI DUP1 PUSH4 0x800BA3F EQ PUSH2 0x1B6A JUMPI DUP1 PUSH4 0x81812FC EQ PUSH2 0x1B2E JUMPI DUP1 PUSH4 0x95EA7B3 EQ PUSH2 0x1A4D JUMPI DUP1 PUSH4 0xC188B4C EQ PUSH2 0x1A23 JUMPI DUP1 PUSH4 0xDB16ECA EQ PUSH2 0x19F9 JUMPI DUP1 PUSH4 0x11B09380 EQ PUSH2 0x18F6 JUMPI DUP1 PUSH4 0x23B872DD EQ PUSH2 0x18DF JUMPI DUP1 PUSH4 0x42842E0E EQ PUSH2 0x18B2 JUMPI DUP1 PUSH4 0x4A754636 EQ PUSH2 0x165F JUMPI DUP1 PUSH4 0x6352211E EQ PUSH2 0x162F JUMPI DUP1 PUSH4 0x68CAD01C EQ PUSH2 0x15F2 JUMPI DUP1 PUSH4 0x70A08231 EQ PUSH2 0x159C JUMPI DUP1 PUSH4 0x796BF795 EQ PUSH2 0x1503 JUMPI DUP1 PUSH4 0x8DA5CB5B EQ PUSH2 0x14DB JUMPI DUP1 PUSH4 0x95D89B41 EQ PUSH2 0x13FD JUMPI DUP1 PUSH4 0xA22CB465 EQ PUSH2 0x134C JUMPI DUP1 PUSH4 0xB88D4FDE EQ PUSH2 0x12DF JUMPI DUP1 PUSH4 0xC87B56DD EQ PUSH2 0xE0A JUMPI DUP1 PUSH4 0xE8E0909D EQ PUSH2 0xCA1 JUMPI DUP1 PUSH4 0xE985E9C5 EQ PUSH2 0xC4F JUMPI DUP1 PUSH4 0xEE666DA0 EQ PUSH2 0x1FE JUMPI PUSH4 0xF6178369 EQ PUSH2 0x124 JUMPI PUSH0 DUP1 REVERT JUMPDEST CALLVALUE PUSH2 0x1FA JUMPI PUSH2 0x132 CALLDATASIZE PUSH2 0x20EF JUMP JUMPDEST PUSH1 0x6 SLOAD SWAP1 SWAP2 PUSH1 0x1 PUSH1 0x1 PUSH1 0xA0 SHL SUB SWAP2 DUP3 AND CALLER SUB PUSH2 0x19A JUMPI PUSH32 0xE40CB3FA3E52FDB62F45B56C4FE552F5AE8638BBEAA13FC66EBAC5CBC9DE58B2 SWAP2 PUSH1 0x20 SWAP2 AND SWAP3 DUP4 PUSH0 MSTORE PUSH1 0x7 DUP3 MSTORE PUSH2 0x18F DUP2 PUSH1 0x40 PUSH0 KECCAK256 SWAP1 PUSH1 0xFF DUP1 NOT DUP4 SLOAD AND SWAP2 ISZERO ISZERO AND OR SWAP1 SSTORE JUMP JUMPDEST PUSH1 0x40 MLOAD SWAP1 ISZERO ISZERO DUP2 MSTORE LOG2 STOP JUMPDEST PUSH1 0x40 MLOAD PUSH3 0x461BCD PUSH1 0xE5 SHL DUP2 MSTORE PUSH1 0x20 PUSH1 0x4 DUP3 ADD MSTORE PUSH1 0x32 PUSH1 0x24 DUP3 ADD MSTORE PUSH32 0x536F6C6F20656C2070726F706965746172696F206465206C6120444170702070 PUSH1 0x44 DUP3 ADD MSTORE PUSH18 0x7565646520656A656375746172206573746F PUSH1 0x70 SHL PUSH1 0x64 DUP3 ADD MSTORE PUSH1 0x84 SWAP1 REVERT JUMPDEST PUSH0 DUP1 REVERT JUMPDEST CALLVALUE PUSH2 0x1FA JUMPI PUSH1 0xA0 CALLDATASIZE PUSH1 0x3 NOT ADD SLT PUSH2 0x1FA JUMPI PUSH1 0x24 CALLDATALOAD PUSH1 0x1 PUSH1 0x1 PUSH1 0x40 SHL SUB DUP2 GT PUSH2 0x1FA JUMPI PUSH2 0x22E SWAP1 CALLDATASIZE SWAP1 PUSH1 0x4 ADD PUSH2 0x20D1 JUMP JUMPDEST PUSH1 0x44 CALLDATALOAD PUSH1 0x1 PUSH1 0x1 PUSH1 0x40 SHL SUB DUP2 GT PUSH2 0x1FA JUMPI PUSH2 0x24D SWAP1 CALLDATASIZE SWAP1 PUSH1 0x4 ADD PUSH2 0x20D1 JUMP JUMPDEST SWAP1 PUSH1 0x64 CALLDATALOAD PUSH1 0x1 PUSH1 0x1 PUSH1 0x40 SHL SUB DUP2 GT PUSH2 0x1FA JUMPI PUSH2 0x26D SWAP1 CALLDATASIZE SWAP1 PUSH1 0x4 ADD PUSH2 0x20D1 JUMP JUMPDEST PUSH1 0x84 CALLDATALOAD PUSH1 0x1 PUSH1 0x1 PUSH1 0xA0 SHL SUB DUP2 AND SWAP1 SUB PUSH2 0x1FA JUMPI CALLER PUSH0 MSTORE PUSH1 0x7 PUSH1 0x20 MSTORE PUSH2 0x298 PUSH1 0xFF PUSH1 0x40 PUSH0 KECCAK256 SLOAD AND PUSH2 0x238E JUMP JUMPDEST PUSH1 0x4 CALLDATALOAD PUSH0 MSTORE PUSH1 0x8 PUSH1 0x20 MSTORE PUSH1 0x40 PUSH0 KECCAK256 SLOAD PUSH2 0xBF3 JUMPI PUSH1 0x84 CALLDATALOAD PUSH1 0x1 PUSH1 0x1 PUSH1 0xA0 SHL SUB AND ISZERO PUSH2 0xBAF JUMPI PUSH1 0x40 MLOAD SWAP2 PUSH2 0x2C9 DUP4 PUSH2 0x1F36 JUMP JUMPDEST PUSH1 0x4 CALLDATALOAD DUP4 MSTORE PUSH1 0x20 DUP4 ADD MSTORE DUP3 PUSH1 0x40 DUP4 ADD MSTORE PUSH1 0x60 DUP3 ADD MSTORE TIMESTAMP PUSH1 0x80 DUP3 ADD MSTORE PUSH0 PUSH1 0xA0 DUP3 ADD MSTORE CALLER PUSH1 0xC0 DUP3 ADD MSTORE PUSH1 0x1 DUP1 PUSH1 0xA0 SHL SUB PUSH1 0x84 CALLDATALOAD AND PUSH1 0xE0 DUP3 ADD MSTORE PUSH0 PUSH2 0x100 DUP3 ADD MSTORE PUSH0 PUSH2 0x120 DUP3 ADD MSTORE PUSH1 0x40 MLOAD PUSH2 0x31A DUP2 PUSH2 0x1F52 JUMP JUMPDEST PUSH0 DUP2 MSTORE PUSH2 0x140 DUP3 ADD MSTORE PUSH1 0x4 CALLDATALOAD PUSH0 MSTORE PUSH1 0x8 PUSH1 0x20 MSTORE PUSH1 0x40 PUSH0 KECCAK256 SWAP1 DUP1 MLOAD DUP3 SSTORE PUSH1 0x20 DUP2 ADD MLOAD SWAP3 DUP4 MLOAD PUSH1 0x1 PUSH1 0x1 PUSH1 0x40 SHL SUB DUP2 GT PUSH2 0x959 JUMPI PUSH2 0x359 PUSH1 0x1 DUP6 ADD SLOAD PUSH2 0x1EFE JUMP JUMPDEST PUSH1 0x1F DUP2 GT PUSH2 0xB6B JUMPI JUMPDEST POP PUSH1 0x20 PUSH1 0x1F DUP3 GT PUSH1 0x1 EQ PUSH2 0xB00 JUMPI DUP2 SWAP3 SWAP4 SWAP5 SWAP6 PUSH0 SWAP3 PUSH2 0xAF5 JUMPI JUMPDEST POP POP DUP2 PUSH1 0x1 SHL SWAP2 PUSH0 NOT SWAP1 PUSH1 0x3 SHL SHR NOT AND OR PUSH1 0x1 DUP5 ADD SSTORE JUMPDEST PUSH1 0x40 DUP3 ADD MLOAD SWAP3 DUP4 MLOAD PUSH1 0x1 PUSH1 0x1 PUSH1 0x40 SHL SUB DUP2 GT PUSH2 0x959 JUMPI PUSH2 0x3B6 PUSH1 0x2 DUP4 ADD SLOAD PUSH2 0x1EFE JUMP JUMPDEST PUSH1 0x1F DUP2 GT PUSH2 0xAB1 JUMPI JUMPDEST POP PUSH1 0x20 PUSH1 0x1F DUP3 GT PUSH1 0x1 EQ PUSH2 0xA46 JUMPI DUP2 SWAP3 SWAP4 SWAP5 SWAP6 PUSH0 SWAP3 PUSH2 0xA3B JUMPI JUMPDEST POP POP DUP2 PUSH1 0x1 SHL SWAP2 PUSH0 NOT SWAP1 PUSH1 0x3 SHL SHR NOT AND OR PUSH1 0x2 DUP3 ADD SSTORE JUMPDEST PUSH1 0x60 DUP4 ADD MLOAD SWAP3 DUP4 MLOAD PUSH1 0x1 PUSH1 0x1 PUSH1 0x40 SHL SUB DUP2 GT PUSH2 0x959 JUMPI PUSH2 0x413 PUSH1 0x3 DUP5 ADD SLOAD PUSH2 0x1EFE JUMP JUMPDEST PUSH1 0x1F DUP2 GT PUSH2 0x9F7 JUMPI JUMPDEST POP PUSH1 0x20 PUSH1 0x1F DUP3 GT PUSH1 0x1 EQ PUSH2 0x98C JUMPI DUP2 SWAP3 SWAP4 SWAP5 SWAP6 PUSH0 SWAP3 PUSH2 0x981 JUMPI JUMPDEST POP POP DUP2 PUSH1 0x1 SHL SWAP2 PUSH0 NOT SWAP1 PUSH1 0x3 SHL SHR NOT AND OR PUSH1 0x3 DUP4 ADD SSTORE JUMPDEST PUSH1 0x80 DUP2 ADD MLOAD PUSH1 0x4 DUP4 ADD SSTORE PUSH1 0xA0 DUP2 ADD MLOAD PUSH1 0x5 DUP4 ADD SSTORE PUSH1 0xC0 DUP2 ADD MLOAD PUSH1 0x6 DUP4 ADD DUP1 SLOAD PUSH1 0x1 PUSH1 0x1 PUSH1 0xA0 SHL SUB NOT AND PUSH1 0x1 PUSH1 0x1 PUSH1 0xA0 SHL SUB SWAP3 DUP4 AND OR SWAP1 SSTORE PUSH1 0xE0 DUP3 ADD MLOAD PUSH1 0x7 DUP5 ADD DUP1 SLOAD PUSH2 0x100 DUP6 ADD MLOAD SWAP5 SWAP4 SWAP2 SWAP3 SWAP1 SWAP2 AND PUSH1 0x3 DUP6 LT ISZERO PUSH2 0x96D JUMPI PUSH2 0x140 SWAP5 PUSH1 0xFF PUSH1 0xA0 SHL SWAP1 PUSH1 0xA0 SHL AND SWAP2 PUSH11 0xFFFFFFFFFFFFFFFFFFFFFF PUSH1 0xA8 SHL AND OR OR SWAP1 SSTORE PUSH2 0x120 DUP2 ADD MLOAD PUSH1 0x8 DUP5 ADD SSTORE ADD MLOAD DUP1 MLOAD SWAP1 PUSH1 0x1 PUSH1 0x1 PUSH1 0x40 SHL SUB DUP3 GT PUSH2 0x959 JUMPI PUSH2 0x4F3 PUSH1 0x9 DUP5 ADD SLOAD PUSH2 0x1EFE JUMP JUMPDEST PUSH1 0x1F DUP2 GT PUSH2 0x915 JUMPI JUMPDEST POP PUSH1 0x20 SWAP1 PUSH1 0x1F DUP4 GT PUSH1 0x1 EQ PUSH2 0x8A9 JUMPI PUSH1 0x9 SWAP3 SWAP2 PUSH0 SWAP2 DUP4 PUSH2 0x89E JUMPI JUMPDEST POP POP DUP2 PUSH1 0x1 SHL SWAP2 PUSH0 NOT SWAP1 PUSH1 0x3 SHL SHR NOT AND OR SWAP2 ADD SSTORE JUMPDEST PUSH1 0x40 MLOAD PUSH1 0x20 DUP2 MSTORE PUSH1 0x1 DUP1 PUSH1 0xA0 SHL SUB PUSH1 0x84 CALLDATALOAD AND SWAP2 PUSH32 0x74D3C61968ABDBCC520C81F8B8EF54A73C2216B63AF4B78D30EB411DBAFDDC3 CALLER SWAP3 DUP1 PUSH2 0x574 PUSH1 0x4 CALLDATALOAD SWAP5 PUSH1 0x20 DUP4 ADD SWAP1 PUSH2 0x1EA0 JUMP JUMPDEST SUB SWAP1 LOG4 PUSH1 0x9 SLOAD PUSH0 NOT SWAP1 DUP2 DUP2 EQ PUSH2 0x88A JUMPI PUSH1 0x1 ADD SWAP1 DUP2 PUSH1 0x9 SSTORE DUP2 PUSH0 MSTORE PUSH1 0xA PUSH1 0x20 MSTORE PUSH1 0x4 CALLDATALOAD PUSH1 0x40 PUSH0 KECCAK256 SSTORE PUSH1 0x4 CALLDATALOAD PUSH0 MSTORE PUSH1 0xB PUSH1 0x20 MSTORE DUP2 PUSH1 0x40 PUSH0 KECCAK256 SSTORE PUSH1 0x40 MLOAD SWAP1 PUSH2 0x5B9 DUP3 PUSH2 0x1F52 JUMP JUMPDEST PUSH0 DUP1 DUP4 MSTORE DUP4 DUP2 MSTORE PUSH1 0x2 PUSH1 0x20 MSTORE PUSH1 0x40 SWAP1 KECCAK256 SLOAD PUSH1 0x1 PUSH1 0x1 PUSH1 0xA0 SHL SUB AND ISZERO DUP1 ISZERO PUSH2 0x883 JUMPI JUMPDEST ISZERO PUSH2 0x82A JUMPI PUSH0 DUP4 DUP2 MSTORE PUSH1 0x2 PUSH1 0x20 MSTORE PUSH1 0x40 SWAP1 KECCAK256 SLOAD PUSH1 0x1 PUSH1 0x1 PUSH1 0xA0 SHL SUB AND DUP1 ISZERO ISZERO SWAP2 DUP5 SWAP2 SWAP1 DUP4 PUSH2 0x7F7 JUMPI JUMPDEST POP PUSH1 0x84 CALLDATALOAD PUSH1 0x1 PUSH1 0x1 PUSH1 0xA0 SHL SUB AND PUSH0 DUP2 DUP2 MSTORE PUSH1 0x3 PUSH1 0x20 SWAP1 DUP2 MSTORE PUSH1 0x40 DUP1 DUP4 KECCAK256 DUP1 SLOAD PUSH1 0x1 ADD SWAP1 SSTORE DUP6 DUP4 MSTORE PUSH1 0x2 SWAP1 SWAP2 MSTORE DUP2 KECCAK256 DUP1 SLOAD PUSH1 0x1 PUSH1 0x1 PUSH1 0xA0 SHL SUB NOT AND DUP4 OR SWAP1 SSTORE SWAP1 SWAP2 SWAP1 PUSH32 0xDDF252AD1BE2C89B69C2B068FC378DAA952BA7F163C4A11628F55A4DF523B3EF SWAP1 DUP1 LOG4 PUSH2 0x7DF JUMPI PUSH1 0x84 CALLDATALOAD EXTCODESIZE PUSH2 0x6AC JUMPI JUMPDEST POP PUSH1 0x84 CALLDATALOAD PUSH1 0x1 PUSH1 0x1 PUSH1 0xA0 SHL SUB AND PUSH1 0x4 CALLDATALOAD PUSH32 0x1AA79BA8A77BF7910F8B1D448A5AD2F6D0758B055E8A01A8878C7B2B0EAC7BC PUSH0 DUP1 LOG4 STOP JUMPDEST PUSH1 0x40 MLOAD PUSH1 0x20 DUP2 DUP1 PUSH2 0x6E5 PUSH4 0xA85BD01 PUSH1 0xE1 SHL SWAP6 DUP7 DUP4 MSTORE CALLER PUSH1 0x4 DUP5 ADD MSTORE PUSH0 PUSH1 0x24 DUP5 ADD MSTORE DUP8 PUSH1 0x44 DUP5 ADD MSTORE PUSH1 0x80 PUSH1 0x64 DUP5 ADD MSTORE PUSH1 0x84 DUP4 ADD SWAP1 PUSH2 0x1EA0 JUMP JUMPDEST SUB DUP2 PUSH0 PUSH1 0x84 CALLDATALOAD PUSH1 0x1 PUSH1 0x1 PUSH1 0xA0 SHL SUB AND GAS CALL PUSH0 SWAP2 DUP2 PUSH2 0x79A JUMPI JUMPDEST POP PUSH2 0x762 JUMPI RETURNDATASIZE ISZERO PUSH2 0x75B JUMPI RETURNDATASIZE PUSH2 0x713 DUP2 PUSH2 0x2080 JUMP JUMPDEST SWAP1 PUSH2 0x721 PUSH1 0x40 MLOAD SWAP3 DUP4 PUSH2 0x1F88 JUMP JUMPDEST DUP2 MSTORE RETURNDATASIZE PUSH0 PUSH1 0x20 DUP4 ADD RETURNDATACOPY JUMPDEST DUP1 MLOAD SWAP1 DUP2 PUSH2 0x756 JUMPI PUSH1 0x40 MLOAD PUSH4 0x32505749 PUSH1 0xE1 SHL DUP2 MSTORE PUSH1 0x84 CALLDATALOAD PUSH1 0x1 PUSH1 0x1 PUSH1 0xA0 SHL SUB AND PUSH1 0x4 DUP3 ADD MSTORE PUSH1 0x24 SWAP1 REVERT JUMPDEST PUSH1 0x20 ADD REVERT JUMPDEST PUSH1 0x60 PUSH2 0x72B JUMP JUMPDEST PUSH1 0x1 PUSH1 0x1 PUSH1 0xE0 SHL SUB NOT AND SUB PUSH2 0x777 JUMPI DUP2 PUSH2 0x676 JUMP JUMPDEST PUSH1 0x40 MLOAD PUSH4 0x32505749 PUSH1 0xE1 SHL DUP2 MSTORE PUSH1 0x84 CALLDATALOAD PUSH1 0x1 PUSH1 0x1 PUSH1 0xA0 SHL SUB AND PUSH1 0x4 DUP3 ADD MSTORE PUSH1 0x24 SWAP1 REVERT JUMPDEST SWAP1 SWAP2 POP PUSH1 0x20 DUP2 RETURNDATASIZE PUSH1 0x20 GT PUSH2 0x7D7 JUMPI JUMPDEST DUP2 PUSH2 0x7B6 PUSH1 0x20 SWAP4 DUP4 PUSH2 0x1F88 JUMP JUMPDEST DUP2 ADD SUB SLT PUSH2 0x1FA JUMPI MLOAD PUSH1 0x1 PUSH1 0x1 PUSH1 0xE0 SHL SUB NOT DUP2 AND DUP2 SUB PUSH2 0x1FA JUMPI SWAP1 DUP5 PUSH2 0x6FE JUMP JUMPDEST RETURNDATASIZE SWAP2 POP PUSH2 0x7A9 JUMP JUMPDEST PUSH1 0x40 MLOAD PUSH4 0x39E35637 PUSH1 0xE1 SHL DUP2 MSTORE PUSH0 PUSH1 0x4 DUP3 ADD MSTORE PUSH1 0x24 SWAP1 REVERT JUMPDEST PUSH0 DUP4 DUP2 MSTORE PUSH1 0x4 PUSH1 0x20 MSTORE PUSH1 0x40 SWAP1 KECCAK256 DUP1 SLOAD PUSH1 0x1 PUSH1 0x1 PUSH1 0xA0 SHL SUB NOT AND SWAP1 SSTORE DUP2 PUSH0 MSTORE PUSH1 0x3 PUSH1 0x20 MSTORE PUSH1 0x40 PUSH0 KECCAK256 SWAP1 DUP2 SLOAD ADD SWAP1 SSTORE DUP6 PUSH2 0x604 JUMP JUMPDEST PUSH1 0x40 MLOAD PUSH3 0x461BCD PUSH1 0xE5 SHL DUP2 MSTORE PUSH1 0x20 PUSH1 0x4 DUP3 ADD MSTORE PUSH1 0x2B PUSH1 0x24 DUP3 ADD MSTORE PUSH32 0x536F756C626F756E643A20656C20636572746966696361646F20657320696E74 PUSH1 0x44 DUP3 ADD MSTORE PUSH11 0x72616E7366657269626C65 PUSH1 0xA8 SHL PUSH1 0x64 DUP3 ADD MSTORE PUSH1 0x84 SWAP1 REVERT JUMPDEST POP PUSH0 PUSH2 0x5DB JUMP JUMPDEST PUSH4 0x4E487B71 PUSH1 0xE0 SHL PUSH0 MSTORE PUSH1 0x11 PUSH1 0x4 MSTORE PUSH1 0x24 PUSH0 REVERT JUMPDEST ADD MLOAD SWAP1 POP DUP6 DUP1 PUSH2 0x517 JUMP JUMPDEST SWAP1 PUSH1 0x9 DUP5 ADD PUSH0 MSTORE PUSH1 0x20 PUSH0 KECCAK256 SWAP2 PUSH0 JUMPDEST PUSH1 0x1F NOT DUP6 AND DUP2 LT PUSH2 0x8FD JUMPI POP SWAP2 DUP4 SWAP2 PUSH1 0x1 SWAP4 PUSH1 0x9 SWAP6 PUSH1 0x1F NOT DUP2 AND LT PUSH2 0x8E5 JUMPI JUMPDEST POP POP POP DUP2 SHL ADD SWAP2 ADD SSTORE PUSH2 0x52C JUMP JUMPDEST ADD MLOAD PUSH0 NOT PUSH1 0xF8 DUP5 PUSH1 0x3 SHL AND SHR NOT AND SWAP1 SSTORE DUP6 DUP1 DUP1 PUSH2 0x8D7 JUMP JUMPDEST SWAP2 SWAP3 PUSH1 0x20 PUSH1 0x1 DUP2 SWAP3 DUP7 DUP6 ADD MLOAD DUP2 SSTORE ADD SWAP5 ADD SWAP3 ADD PUSH2 0x8B7 JUMP JUMPDEST PUSH1 0x9 DUP5 ADD PUSH0 MSTORE PUSH1 0x20 PUSH0 KECCAK256 PUSH1 0x1F DUP5 ADD PUSH1 0x5 SHR DUP2 ADD PUSH1 0x20 DUP6 LT PUSH2 0x952 JUMPI JUMPDEST PUSH1 0x1F DUP4 ADD PUSH1 0x5 SHR DUP3 ADD DUP2 LT PUSH2 0x947 JUMPI POP POP PUSH2 0x4FC JUMP JUMPDEST PUSH0 DUP2 SSTORE PUSH1 0x1 ADD PUSH2 0x931 JUMP JUMPDEST POP DUP1 PUSH2 0x931 JUMP JUMPDEST PUSH4 0x4E487B71 PUSH1 0xE0 SHL PUSH0 MSTORE PUSH1 0x41 PUSH1 0x4 MSTORE PUSH1 0x24 PUSH0 REVERT JUMPDEST PUSH4 0x4E487B71 PUSH1 0xE0 SHL PUSH0 MSTORE PUSH1 0x21 PUSH1 0x4 MSTORE PUSH1 0x24 PUSH0 REVERT JUMPDEST ADD MLOAD SWAP1 POP DUP6 DUP1 PUSH2 0x436 JUMP JUMPDEST PUSH1 0x3 DUP5 ADD PUSH0 MSTORE PUSH1 0x20 PUSH0 KECCAK256 SWAP1 PUSH0 JUMPDEST PUSH1 0x1F NOT DUP5 AND DUP2 LT PUSH2 0x9DF JUMPI POP PUSH1 0x1 SWAP4 SWAP5 SWAP6 SWAP7 DUP4 PUSH1 0x1F NOT DUP2 AND LT PUSH2 0x9C7 JUMPI JUMPDEST POP POP POP DUP2 SHL ADD PUSH1 0x3 DUP4 ADD SSTORE PUSH2 0x44D JUMP JUMPDEST ADD MLOAD PUSH0 NOT PUSH1 0xF8 DUP5 PUSH1 0x3 SHL AND SHR NOT AND SWAP1 SSTORE DUP6 DUP1 DUP1 PUSH2 0x9B7 JUMP JUMPDEST SWAP1 SWAP2 PUSH1 0x20 PUSH1 0x1 DUP2 SWAP3 DUP6 DUP12 ADD MLOAD DUP2 SSTORE ADD SWAP4 ADD SWAP2 ADD PUSH2 0x999 JUMP JUMPDEST PUSH1 0x3 DUP5 ADD PUSH0 MSTORE PUSH1 0x20 PUSH0 KECCAK256 PUSH1 0x1F DUP4 ADD PUSH1 0x5 SHR DUP2 ADD PUSH1 0x20 DUP5 LT PUSH2 0xA34 JUMPI JUMPDEST PUSH1 0x1F DUP4 ADD PUSH1 0x5 SHR DUP3 ADD DUP2 LT PUSH2 0xA29 JUMPI POP POP PUSH2 0x41C JUMP JUMPDEST PUSH0 DUP2 SSTORE PUSH1 0x1 ADD PUSH2 0xA13 JUMP JUMPDEST POP DUP1 PUSH2 0xA13 JUMP JUMPDEST ADD MLOAD SWAP1 POP DUP6 DUP1 PUSH2 0x3D9 JUMP JUMPDEST PUSH1 0x2 DUP4 ADD PUSH0 MSTORE PUSH1 0x20 PUSH0 KECCAK256 SWAP1 PUSH0 JUMPDEST PUSH1 0x1F NOT DUP5 AND DUP2 LT PUSH2 0xA99 JUMPI POP PUSH1 0x1 SWAP4 SWAP5 SWAP6 SWAP7 DUP4 PUSH1 0x1F NOT DUP2 AND LT PUSH2 0xA81 JUMPI JUMPDEST POP POP POP DUP2 SHL ADD PUSH1 0x2 DUP3 ADD SSTORE PUSH2 0x3F0 JUMP JUMPDEST ADD MLOAD PUSH0 NOT PUSH1 0xF8 DUP5 PUSH1 0x3 SHL AND SHR NOT AND SWAP1 SSTORE DUP6 DUP1 DUP1 PUSH2 0xA71 JUMP JUMPDEST SWAP1 SWAP2 PUSH1 0x20 PUSH1 0x1 DUP2 SWAP3 DUP6 DUP12 ADD MLOAD DUP2 SSTORE ADD SWAP4 ADD SWAP2 ADD PUSH2 0xA53 JUMP JUMPDEST PUSH1 0x2 DUP4 ADD PUSH0 MSTORE PUSH1 0x20 PUSH0 KECCAK256 PUSH1 0x1F DUP4 ADD PUSH1 0x5 SHR DUP2 ADD PUSH1 0x20 DUP5 LT PUSH2 0xAEE JUMPI JUMPDEST PUSH1 0x1F DUP4 ADD PUSH1 0x5 SHR DUP3 ADD DUP2 LT PUSH2 0xAE3 JUMPI POP POP PUSH2 0x3BF JUMP JUMPDEST PUSH0 DUP2 SSTORE PUSH1 0x1 ADD PUSH2 0xACD JUMP JUMPDEST POP DUP1 PUSH2 0xACD JUMP JUMPDEST ADD MLOAD SWAP1 POP DUP6 DUP1 PUSH2 0x37C JUMP JUMPDEST PUSH1 0x1 DUP6 ADD PUSH0 MSTORE PUSH1 0x20 PUSH0 KECCAK256 SWAP1 PUSH0 JUMPDEST PUSH1 0x1F NOT DUP5 AND DUP2 LT PUSH2 0xB53 JUMPI POP PUSH1 0x1 SWAP4 SWAP5 SWAP6 SWAP7 DUP4 PUSH1 0x1F NOT DUP2 AND LT PUSH2 0xB3B JUMPI JUMPDEST POP POP POP DUP2 SHL ADD PUSH1 0x1 DUP5 ADD SSTORE PUSH2 0x393 JUMP JUMPDEST ADD MLOAD PUSH0 NOT PUSH1 0xF8 DUP5 PUSH1 0x3 SHL AND SHR NOT AND SWAP1 SSTORE DUP6 DUP1 DUP1 PUSH2 0xB2B JUMP JUMPDEST SWAP1 SWAP2 PUSH1 0x20 PUSH1 0x1 DUP2 SWAP3 DUP6 DUP12 ADD MLOAD DUP2 SSTORE ADD SWAP4 ADD SWAP2 ADD PUSH2 0xB0D JUMP JUMPDEST PUSH1 0x1 DUP6 ADD PUSH0 MSTORE PUSH1 0x20 PUSH0 KECCAK256 PUSH1 0x1F DUP4 ADD PUSH1 0x5 SHR DUP2 ADD PUSH1 0x20 DUP5 LT PUSH2 0xBA8 JUMPI JUMPDEST PUSH1 0x1F DUP4 ADD PUSH1 0x5 SHR DUP3 ADD DUP2 LT PUSH2 0xB9D JUMPI POP POP PUSH2 0x362 JUMP JUMPDEST PUSH0 DUP2 SSTORE PUSH1 0x1 ADD PUSH2 0xB87 JUMP JUMPDEST POP DUP1 PUSH2 0xB87 JUMP JUMPDEST PUSH1 0x64 PUSH1 0x40 MLOAD PUSH3 0x461BCD PUSH1 0xE5 SHL DUP2 MSTORE PUSH1 0x20 PUSH1 0x4 DUP3 ADD MSTORE PUSH1 0x20 PUSH1 0x24 DUP3 ADD MSTORE PUSH32 0x446972656363696F6E20646520657374756469616E746520696E76616C696461 PUSH1 0x44 DUP3 ADD MSTORE REVERT JUMPDEST PUSH1 0x40 MLOAD PUSH3 0x461BCD PUSH1 0xE5 SHL DUP2 MSTORE PUSH1 0x20 PUSH1 0x4 DUP3 ADD MSTORE PUSH1 0x2E PUSH1 0x24 DUP3 ADD MSTORE PUSH32 0x456C2068617368206465206573746520636572746966696361646F2079612065 PUSH1 0x44 DUP3 ADD MSTORE PUSH14 0x737461207265676973747261646F PUSH1 0x90 SHL PUSH1 0x64 DUP3 ADD MSTORE PUSH1 0x84 SWAP1 REVERT JUMPDEST CALLVALUE PUSH2 0x1FA JUMPI PUSH1 0x40 CALLDATASIZE PUSH1 0x3 NOT ADD SLT PUSH2 0x1FA JUMPI PUSH2 0xC68 PUSH2 0x1ED2 JUMP JUMPDEST PUSH2 0xC70 PUSH2 0x1EE8 JUMP JUMPDEST SWAP1 PUSH1 0x1 DUP1 PUSH1 0xA0 SHL SUB DUP1 SWAP2 AND PUSH0 MSTORE PUSH1 0x5 PUSH1 0x20 MSTORE PUSH1 0x40 PUSH0 KECCAK256 SWAP2 AND PUSH0 MSTORE PUSH1 0x20 MSTORE PUSH1 0x20 PUSH1 0xFF PUSH1 0x40 PUSH0 KECCAK256 SLOAD AND PUSH1 0x40 MLOAD SWAP1 ISZERO ISZERO DUP2 MSTORE RETURN JUMPDEST CALLVALUE PUSH2 0x1FA JUMPI PUSH1 0x20 CALLDATASIZE PUSH1 0x3 NOT ADD SLT PUSH2 0x1FA JUMPI PUSH1 0x4 CALLDATALOAD DUP1 PUSH0 MSTORE PUSH1 0x8 PUSH1 0x20 MSTORE PUSH1 0x40 PUSH0 KECCAK256 PUSH2 0xCCD DUP2 SLOAD ISZERO ISZERO PUSH2 0x23F1 JUMP JUMPDEST PUSH1 0x7 DUP2 ADD DUP1 SLOAD PUSH1 0x1 PUSH1 0x1 PUSH1 0xA0 SHL SUB DUP2 AND CALLER SUB PUSH2 0xDA7 JUMPI PUSH1 0xFF DUP2 PUSH1 0xA0 SHR AND PUSH1 0x3 DUP2 LT ISZERO PUSH2 0x96D JUMPI PUSH2 0xD3C JUMPI PUSH1 0x1 PUSH1 0xA0 SHL SWAP1 PUSH1 0xFF PUSH1 0xA0 SHL NOT AND OR SWAP1 SSTORE PUSH1 0x5 TIMESTAMP SWAP2 ADD SSTORE PUSH1 0x40 MLOAD SWAP1 TIMESTAMP DUP3 MSTORE PUSH32 0xF0E88FE41174C278D186EF86D0E72515E6800013F0E803FA1CDDF0E742AC30C2 PUSH1 0x20 CALLER SWAP4 LOG3 STOP JUMPDEST PUSH1 0x40 MLOAD PUSH3 0x461BCD PUSH1 0xE5 SHL DUP2 MSTORE PUSH1 0x20 PUSH1 0x4 DUP3 ADD MSTORE PUSH1 0x3B PUSH1 0x24 DUP3 ADD MSTORE PUSH32 0x456C20636572746966696361646F206E6F2065737461206C6973746F20706172 PUSH1 0x44 DUP3 ADD MSTORE PUSH32 0x61206669726D6172206F207961206675652070726F63657361646F0000000000 PUSH1 0x64 DUP3 ADD MSTORE PUSH1 0x84 SWAP1 REVERT JUMPDEST PUSH1 0x40 MLOAD PUSH3 0x461BCD PUSH1 0xE5 SHL DUP2 MSTORE PUSH1 0x20 PUSH1 0x4 DUP3 ADD MSTORE PUSH1 0x35 PUSH1 0x24 DUP3 ADD MSTORE PUSH32 0x536F6C6F20656C20657374756469616E746520617369676E61646F2070756564 PUSH1 0x44 DUP3 ADD MSTORE PUSH21 0x32903334B936B0B9103630903932B1B2B831B4B7B7 PUSH1 0x59 SHL PUSH1 0x64 DUP3 ADD MSTORE PUSH1 0x84 SWAP1 REVERT JUMPDEST CALLVALUE PUSH2 0x1FA JUMPI PUSH1 0x20 DUP1 PUSH1 0x3 NOT CALLDATASIZE ADD SLT PUSH2 0x1FA JUMPI PUSH1 0x4 CALLDATALOAD PUSH2 0xE28 DUP2 PUSH2 0x24BD JUMP JUMPDEST POP DUP1 PUSH0 MSTORE PUSH1 0xA DUP3 MSTORE PUSH1 0x40 PUSH0 KECCAK256 SLOAD PUSH0 MSTORE PUSH1 0x8 DUP3 MSTORE PUSH2 0xE48 PUSH1 0x40 PUSH0 KECCAK256 SWAP2 PUSH2 0x2641 JUMP JUMPDEST PUSH1 0x2 DUP3 ADD SWAP2 PUSH2 0xE5A PUSH1 0x4 DUP3 ADD SLOAD PUSH2 0x2641 JUMP JUMPDEST PUSH1 0x1 DUP3 SLOAD DUP1 PUSH1 0x40 MLOAD SWAP2 PUSH1 0x80 DUP4 ADD DUP4 DUP2 LT PUSH1 0x1 PUSH1 0x1 PUSH1 0x40 SHL SUB DUP3 GT OR PUSH2 0x959 JUMPI PUSH1 0x40 MSTORE PUSH1 0x42 DUP4 MSTORE DUP9 DUP4 ADD SWAP4 PUSH1 0x60 CALLDATASIZE DUP7 CALLDATACOPY DUP4 MLOAD ISZERO PUSH2 0x12CB JUMPI PUSH1 0x30 DUP6 MSTORE8 DUP4 MLOAD PUSH1 0x1 LT ISZERO PUSH2 0x12CB JUMPI PUSH1 0x78 PUSH1 0x21 DUP6 ADD MSTORE8 PUSH1 0x41 SWAP1 JUMPDEST DUP1 DUP3 GT PUSH2 0x1284 JUMPI POP POP PUSH2 0x1266 JUMPI POP PUSH1 0x7 DUP5 ADD SLOAD PUSH1 0xA0 SHR PUSH1 0xFF AND PUSH2 0xECB SWAP1 PUSH2 0x27A8 JUMP JUMPDEST SWAP4 PUSH1 0x40 MLOAD SWAP7 DUP8 SWAP7 DUP10 DUP9 ADD PUSH32 0x7B226E616D65223A22436572746966696361646F2041636164656D69636F2023 SWAP1 MSTORE DUP1 MLOAD SWAP1 DUP2 DUP12 PUSH1 0x40 DUP12 ADD SWAP3 ADD SWAP2 PUSH2 0xF0D SWAP3 PUSH2 0x1E7F JUMP JUMPDEST DUP8 ADD PUSH1 0x40 DUP2 ADD PUSH3 0x10169 PUSH1 0xED SHL SWAP1 MSTORE PUSH1 0x43 ADD PUSH2 0xF29 SWAP1 DUP3 PUSH2 0x243D JUMP JUMPDEST PUSH32 0x222C226465736372697074696F6E223A22546974756C6F2061636164656D6963 DUP2 MSTORE PUSH32 0x6F20656D697469646F2079207665726966696361646F206F6E2D636861696E20 DUP11 DUP3 ADD MSTORE PUSH32 0x706F7220554E4956414C4C452E204E465420736F756C626F756E6420286E6F20 PUSH1 0x40 DUP3 ADD MSTORE PUSH16 0x1D1C985B9CD9995C9A589B194A4B888B PUSH1 0x82 SHL PUSH1 0x60 DUP3 ADD MSTORE PUSH14 0x2261747472696275746573223A5B PUSH1 0x90 SHL PUSH1 0x70 DUP3 ADD MSTORE PUSH32 0x7B2274726169745F74797065223A22457374756469616E7465222C2276616C75 PUSH1 0x7E DUP3 ADD MSTORE PUSH4 0x32911D11 PUSH1 0xE1 SHL PUSH1 0x9E DUP3 ADD MSTORE PUSH2 0x1009 SWAP2 PUSH1 0xA2 SWAP1 SWAP2 ADD SWAP1 PUSH2 0x243D JUMP JUMPDEST SWAP4 PUSH3 0x89F4B PUSH1 0xEA SHL SWAP5 DUP6 DUP2 MSTORE PUSH1 0x3 DUP2 ADD PUSH32 0x7B2274726169745F74797065223A2243617272657261222C2276616C7565223A SWAP1 MSTORE PUSH1 0x11 PUSH1 0xF9 SHL PUSH1 0x23 DUP3 ADD MSTORE PUSH1 0x24 ADD PUSH1 0x3 DUP4 ADD SWAP1 PUSH2 0x1057 SWAP2 PUSH2 0x243D JUMP JUMPDEST DUP6 DUP2 MSTORE PUSH32 0x7B2274726169745F74797065223A22556E697665727369646164222C2276616C PUSH1 0x3 DUP3 ADD MSTORE PUSH32 0x7565223A22556E6976657273696461642064656C2056616C6C652028554E4956 PUSH1 0x23 DUP3 ADD MSTORE PUSH8 0x105313114A489F4B PUSH1 0xC2 SHL PUSH1 0x43 DUP3 ADD MSTORE PUSH32 0x7B2274726169745F74797065223A22466563686120646520456D6973696F6E22 PUSH1 0x4B DUP3 ADD MSTORE PUSH10 0x16113B30B63AB2911D11 PUSH1 0xB1 SHL PUSH1 0x6B DUP3 ADD MSTORE DUP2 MLOAD SWAP2 PUSH2 0x1105 SWAP1 DUP4 SWAP1 PUSH1 0x75 DUP5 ADD SWAP1 DUP14 ADD PUSH2 0x1E7F JUMP JUMPDEST ADD DUP5 PUSH1 0x75 DUP3 ADD MSTORE PUSH1 0x78 DUP2 ADD PUSH32 0x7B2274726169745F74797065223A22436F6469676F222C2276616C7565223A22 SWAP1 MSTORE PUSH1 0x98 ADD SWAP1 PUSH1 0x1 ADD SWAP1 PUSH2 0x1144 SWAP2 PUSH2 0x243D JUMP JUMPDEST SWAP1 DUP4 DUP3 MSTORE PUSH1 0x3 DUP3 ADD PUSH32 0x7B2274726169745F74797065223A2248617368222C2276616C7565223A220000 SWAP1 MSTORE MLOAD SWAP2 DUP3 PUSH1 0x21 DUP4 ADD PUSH2 0x117F SWAP3 PUSH2 0x1E7F JUMP JUMPDEST ADD SWAP1 PUSH1 0x21 DUP3 ADD MSTORE PUSH1 0x24 DUP2 ADD PUSH32 0x7B2274726169745F74797065223A2245737461646F222C2276616C7565223A22 SWAP1 MSTORE DUP2 MLOAD SWAP2 DUP3 DUP7 PUSH1 0x44 DUP5 ADD SWAP3 ADD SWAP2 PUSH2 0x11C2 SWAP3 PUSH2 0x1E7F JUMP JUMPDEST ADD PUSH2 0x227D PUSH1 0xF0 SHL PUSH1 0x44 DUP3 ADD MSTORE PUSH1 0x46 DUP2 ADD PUSH2 0x5D7D PUSH1 0xF0 SHL SWAP1 MSTORE SUB PUSH1 0x28 DUP2 ADD DUP3 MSTORE PUSH1 0x48 ADD PUSH2 0x11EE SWAP1 DUP3 PUSH2 0x1F88 JUMP JUMPDEST PUSH2 0x11F7 SWAP1 PUSH2 0x283A JUMP JUMPDEST SWAP1 PUSH1 0x40 MLOAD DUP1 SWAP3 DUP3 DUP3 ADD PUSH32 0x646174613A6170706C69636174696F6E2F6A736F6E3B6261736536342C000000 SWAP1 MSTORE DUP1 MLOAD SWAP1 DUP2 DUP5 PUSH1 0x3D DUP6 ADD SWAP3 ADD SWAP2 PUSH2 0x1238 SWAP3 PUSH2 0x1E7F JUMP JUMPDEST DUP2 ADD SUB PUSH1 0x1D DUP2 ADD DUP4 MSTORE PUSH1 0x3D ADD PUSH2 0x124E SWAP1 DUP4 PUSH2 0x1F88 JUMP JUMPDEST PUSH1 0x40 MLOAD SWAP2 DUP2 DUP4 SWAP3 DUP4 MSTORE DUP3 ADD PUSH2 0x1262 SWAP2 PUSH2 0x1EA0 JUMP JUMPDEST SUB SWAP1 RETURN JUMPDEST PUSH1 0x44 SWAP1 DUP9 PUSH1 0x40 MLOAD SWAP2 PUSH4 0xE22E27EB PUSH1 0xE0 SHL DUP4 MSTORE PUSH1 0x4 DUP4 ADD MSTORE PUSH1 0x24 DUP3 ADD MSTORE REVERT JUMPDEST SWAP1 SWAP2 PUSH1 0xF DUP2 AND PUSH1 0x10 DUP2 LT ISZERO PUSH2 0x12CB JUMPI DUP6 MLOAD DUP5 LT ISZERO PUSH2 0x12CB JUMPI PUSH16 0x181899199A1A9B1B9C1CB0B131B232B3 PUSH1 0x81 SHL SWAP1 BYTE DUP6 DUP5 ADD DUP13 ADD MSTORE8 PUSH1 0x4 SHR SWAP2 DUP1 ISZERO PUSH2 0x88A JUMPI PUSH0 NOT ADD SWAP1 PUSH2 0xEA9 JUMP JUMPDEST PUSH4 0x4E487B71 PUSH1 0xE0 SHL PUSH0 MSTORE PUSH1 0x32 PUSH1 0x4 MSTORE PUSH1 0x24 PUSH0 REVERT JUMPDEST CALLVALUE PUSH2 0x1FA JUMPI PUSH1 0x80 CALLDATASIZE PUSH1 0x3 NOT ADD SLT PUSH2 0x1FA JUMPI PUSH2 0x12F8 PUSH2 0x1ED2 JUMP JUMPDEST PUSH2 0x1300 PUSH2 0x1EE8 JUMP JUMPDEST SWAP1 PUSH1 0x44 CALLDATALOAD PUSH1 0x64 CALLDATALOAD SWAP3 PUSH1 0x1 PUSH1 0x1 PUSH1 0x40 SHL SUB DUP5 GT PUSH2 0x1FA JUMPI CALLDATASIZE PUSH1 0x23 DUP6 ADD SLT ISZERO PUSH2 0x1FA JUMPI PUSH2 0x1338 PUSH2 0x134A SWAP5 CALLDATASIZE SWAP1 PUSH1 0x24 DUP2 PUSH1 0x4 ADD CALLDATALOAD SWAP2 ADD PUSH2 0x209B JUMP JUMPDEST SWAP3 PUSH2 0x1344 DUP4 DUP4 DUP4 PUSH2 0x2179 JUMP JUMPDEST CALLER PUSH2 0x24F7 JUMP JUMPDEST STOP JUMPDEST CALLVALUE PUSH2 0x1FA JUMPI PUSH2 0x135A CALLDATASIZE PUSH2 0x20EF JUMP JUMPDEST SWAP1 CALLER ISZERO PUSH2 0x13E5 JUMPI PUSH1 0x1 PUSH1 0x1 PUSH1 0xA0 SHL SUB AND SWAP1 DUP2 ISZERO PUSH2 0x13CC JUMPI CALLER PUSH0 MSTORE PUSH1 0x5 PUSH1 0x20 MSTORE PUSH1 0x40 PUSH0 KECCAK256 DUP3 PUSH0 MSTORE PUSH1 0x20 MSTORE PUSH2 0x139C DUP2 PUSH1 0x40 PUSH0 KECCAK256 SWAP1 PUSH1 0xFF DUP1 NOT DUP4 SLOAD AND SWAP2 ISZERO ISZERO AND OR SWAP1 SSTORE JUMP JUMPDEST PUSH1 0x40 MLOAD SWAP1 ISZERO ISZERO DUP2 MSTORE PUSH32 0x17307EAB39AB6107E8899845AD3D59BD9653F200F220920489CA2B5937696C31 PUSH1 0x20 CALLER SWAP3 LOG3 STOP JUMPDEST PUSH1 0x40 MLOAD PUSH4 0xB611743 PUSH1 0xE3 SHL DUP2 MSTORE PUSH1 0x4 DUP2 ADD DUP4 SWAP1 MSTORE PUSH1 0x24 SWAP1 REVERT JUMPDEST PUSH1 0x40 MLOAD PUSH4 0xA9FBF51F PUSH1 0xE0 SHL DUP2 MSTORE PUSH0 PUSH1 0x4 DUP3 ADD MSTORE PUSH1 0x24 SWAP1 REVERT JUMPDEST CALLVALUE PUSH2 0x1FA JUMPI PUSH0 CALLDATASIZE PUSH1 0x3 NOT ADD SLT PUSH2 0x1FA JUMPI PUSH1 0x40 MLOAD PUSH0 PUSH1 0x1 DUP3 PUSH1 0x1 SLOAD SWAP3 PUSH2 0x1421 DUP5 PUSH2 0x1EFE JUMP JUMPDEST SWAP3 DUP4 DUP4 MSTORE PUSH1 0x20 SWAP5 DUP6 PUSH1 0x1 DUP3 AND SWAP2 DUP3 PUSH0 EQ PUSH2 0x14BB JUMPI POP POP PUSH1 0x1 EQ PUSH2 0x1460 JUMPI JUMPDEST POP PUSH2 0x144C SWAP3 POP SUB DUP4 PUSH2 0x1F88 JUMP JUMPDEST PUSH2 0x1262 PUSH1 0x40 MLOAD SWAP3 DUP3 DUP5 SWAP4 DUP5 MSTORE DUP4 ADD SWAP1 PUSH2 0x1EA0 JUMP JUMPDEST DUP5 SWAP2 POP PUSH1 0x1 PUSH0 MSTORE PUSH32 0xB10E2D527612073B26EECDFD717E6A320CF44B4AFAC2B0732D9FCBE2B7FA0CF6 SWAP1 PUSH0 SWAP2 JUMPDEST DUP6 DUP4 LT PUSH2 0x14A3 JUMPI POP POP PUSH2 0x144C SWAP4 POP DUP3 ADD ADD DUP6 PUSH2 0x143F JUMP JUMPDEST DUP1 SLOAD DUP4 DUP10 ADD DUP6 ADD MSTORE DUP8 SWAP5 POP DUP7 SWAP4 SWAP1 SWAP3 ADD SWAP2 DUP2 ADD PUSH2 0x148C JUMP JUMPDEST PUSH1 0xFF NOT AND DUP6 DUP3 ADD MSTORE PUSH2 0x144C SWAP6 ISZERO ISZERO PUSH1 0x5 SHL DUP6 ADD ADD SWAP3 POP DUP8 SWAP2 POP PUSH2 0x143F SWAP1 POP JUMP JUMPDEST CALLVALUE PUSH2 0x1FA JUMPI PUSH0 CALLDATASIZE PUSH1 0x3 NOT ADD SLT PUSH2 0x1FA JUMPI PUSH1 0x6 SLOAD PUSH1 0x40 MLOAD PUSH1 0x1 PUSH1 0x1 PUSH1 0xA0 SHL SUB SWAP1 SWAP2 AND DUP2 MSTORE PUSH1 0x20 SWAP1 RETURN JUMPDEST CALLVALUE PUSH2 0x1FA JUMPI PUSH1 0x20 CALLDATASIZE PUSH1 0x3 NOT ADD SLT PUSH2 0x1FA JUMPI PUSH1 0x4 CALLDATALOAD PUSH0 MSTORE PUSH1 0x8 PUSH1 0x20 MSTORE PUSH1 0x40 PUSH0 KECCAK256 PUSH2 0x152E DUP2 SLOAD ISZERO ISZERO PUSH2 0x211E JUMP JUMPDEST PUSH1 0x4 DUP2 ADD SLOAD PUSH2 0x1262 PUSH1 0x5 DUP4 ADD SLOAD SWAP3 PUSH1 0x1 DUP1 PUSH1 0xA0 SHL SUB PUSH1 0x6 DUP3 ADD SLOAD AND SWAP1 PUSH2 0x1586 PUSH1 0x7 DUP3 ADD SLOAD PUSH2 0x1563 PUSH1 0x9 PUSH1 0x8 DUP6 ADD SLOAD SWAP5 ADD PUSH2 0x1FA9 JUMP JUMPDEST SWAP4 PUSH1 0x40 MLOAD SWAP8 DUP9 SWAP8 DUP9 MSTORE PUSH1 0x20 DUP9 ADD MSTORE PUSH1 0x40 DUP8 ADD MSTORE PUSH1 0xFF PUSH1 0x60 DUP8 ADD SWAP2 PUSH1 0xA0 SHR AND PUSH2 0x1EC5 JUMP JUMPDEST PUSH1 0x80 DUP5 ADD MSTORE PUSH1 0xC0 PUSH1 0xA0 DUP5 ADD MSTORE PUSH1 0xC0 DUP4 ADD SWAP1 PUSH2 0x1EA0 JUMP JUMPDEST CALLVALUE PUSH2 0x1FA JUMPI PUSH1 0x20 CALLDATASIZE PUSH1 0x3 NOT ADD SLT PUSH2 0x1FA JUMPI PUSH1 0x1 PUSH1 0x1 PUSH1 0xA0 SHL SUB PUSH2 0x15BD PUSH2 0x1ED2 JUMP JUMPDEST AND DUP1 ISZERO PUSH2 0x15DA JUMPI PUSH0 MSTORE PUSH1 0x3 PUSH1 0x20 MSTORE PUSH1 0x20 PUSH1 0x40 PUSH0 KECCAK256 SLOAD PUSH1 0x40 MLOAD SWAP1 DUP2 MSTORE RETURN JUMPDEST PUSH1 0x40 MLOAD PUSH4 0x22718AD9 PUSH1 0xE2 SHL DUP2 MSTORE PUSH0 PUSH1 0x4 DUP3 ADD MSTORE PUSH1 0x24 SWAP1 REVERT JUMPDEST CALLVALUE PUSH2 0x1FA JUMPI PUSH1 0x20 CALLDATASIZE PUSH1 0x3 NOT ADD SLT PUSH2 0x1FA JUMPI PUSH1 0x1 PUSH1 0x1 PUSH1 0xA0 SHL SUB PUSH2 0x1613 PUSH2 0x1ED2 JUMP JUMPDEST AND PUSH0 MSTORE PUSH1 0x7 PUSH1 0x20 MSTORE PUSH1 0x20 PUSH1 0xFF PUSH1 0x40 PUSH0 KECCAK256 SLOAD AND PUSH1 0x40 MLOAD SWAP1 ISZERO ISZERO DUP2 MSTORE RETURN JUMPDEST CALLVALUE PUSH2 0x1FA JUMPI PUSH1 0x20 CALLDATASIZE PUSH1 0x3 NOT ADD SLT PUSH2 0x1FA JUMPI PUSH1 0x20 PUSH2 0x164D PUSH1 0x4 CALLDATALOAD PUSH2 0x24BD JUMP JUMPDEST PUSH1 0x40 MLOAD PUSH1 0x1 PUSH1 0x1 PUSH1 0xA0 SHL SUB SWAP1 SWAP2 AND DUP2 MSTORE RETURN JUMPDEST CALLVALUE PUSH2 0x1FA JUMPI PUSH1 0x40 CALLDATASIZE PUSH1 0x3 NOT ADD SLT PUSH2 0x1FA JUMPI PUSH1 0x4 CALLDATALOAD PUSH1 0x1 PUSH1 0x1 PUSH1 0x40 SHL SUB PUSH1 0x24 CALLDATALOAD DUP2 DUP2 GT PUSH2 0x1FA JUMPI PUSH2 0x1693 SWAP1 CALLDATASIZE SWAP1 PUSH1 0x4 ADD PUSH2 0x20D1 JUMP JUMPDEST SWAP1 CALLER PUSH0 MSTORE PUSH1 0x20 SWAP1 PUSH1 0x7 DUP3 MSTORE PUSH2 0x16AE PUSH1 0xFF PUSH1 0x40 PUSH0 KECCAK256 SLOAD AND PUSH2 0x238E JUMP JUMPDEST DUP4 PUSH0 MSTORE PUSH1 0x8 DUP3 MSTORE PUSH1 0x40 PUSH0 KECCAK256 PUSH2 0x16C5 DUP2 SLOAD ISZERO ISZERO PUSH2 0x23F1 JUMP JUMPDEST PUSH1 0x7 DUP2 ADD DUP1 SLOAD PUSH1 0xFF DUP2 PUSH1 0xA0 SHR AND PUSH1 0x3 DUP2 LT ISZERO PUSH2 0x96D JUMPI PUSH1 0x2 EQ PUSH2 0x185D JUMPI PUSH1 0xFF PUSH1 0xA0 SHL NOT AND PUSH1 0x1 PUSH1 0xA1 SHL OR SWAP1 SSTORE TIMESTAMP PUSH1 0x8 DUP3 ADD SSTORE DUP4 MLOAD PUSH1 0x9 SWAP2 SWAP1 SWAP2 ADD SWAP2 DUP2 GT PUSH2 0x959 JUMPI PUSH2 0x1710 DUP3 SLOAD PUSH2 0x1EFE JUMP JUMPDEST PUSH1 0x1F DUP2 GT PUSH2 0x181A JUMPI JUMPDEST POP DUP3 PUSH1 0x1F DUP3 GT PUSH1 0x1 EQ PUSH2 0x1794 JUMPI SWAP2 DUP2 PUSH2 0x177E SWAP5 SWAP3 PUSH32 0x33567E9E655CB32D8944763B8E785872F05E07D4FC375C7818F33B3EC24E8924 SWAP7 SWAP5 PUSH0 SWAP2 PUSH2 0x1789 JUMPI JUMPDEST POP DUP2 PUSH1 0x1 SHL SWAP2 PUSH0 NOT SWAP1 PUSH1 0x3 SHL SHR NOT AND OR SWAP1 SSTORE JUMPDEST PUSH1 0x40 MLOAD SWAP3 DUP4 SWAP3 PUSH1 0x40 DUP5 MSTORE PUSH1 0x40 DUP5 ADD SWAP1 PUSH2 0x1EA0 JUMP JUMPDEST SWAP1 TIMESTAMP SWAP1 DUP4 ADD MSTORE SUB SWAP1 LOG2 STOP JUMPDEST SWAP1 POP DUP5 ADD MLOAD DUP9 PUSH2 0x1757 JUMP JUMPDEST PUSH1 0x1F NOT DUP3 AND SWAP1 DUP4 PUSH0 MSTORE DUP5 PUSH0 KECCAK256 SWAP2 PUSH0 JUMPDEST DUP2 DUP2 LT PUSH2 0x1803 JUMPI POP SWAP3 PUSH32 0x33567E9E655CB32D8944763B8E785872F05E07D4FC375C7818F33B3EC24E8924 SWAP7 SWAP5 SWAP3 PUSH1 0x1 SWAP3 DUP3 PUSH2 0x177E SWAP9 SWAP7 LT PUSH2 0x17EB JUMPI JUMPDEST POP POP DUP2 SHL ADD SWAP1 SSTORE PUSH2 0x176A JUMP JUMPDEST DUP7 ADD MLOAD PUSH0 NOT PUSH1 0xF8 DUP5 PUSH1 0x3 SHL AND SHR NOT AND SWAP1 SSTORE DUP9 DUP1 PUSH2 0x17DF JUMP JUMPDEST SWAP2 SWAP3 DUP7 PUSH1 0x1 DUP2 SWAP3 DUP7 DUP12 ADD MLOAD DUP2 SSTORE ADD SWAP5 ADD SWAP3 ADD PUSH2 0x17A3 JUMP JUMPDEST DUP3 PUSH0 MSTORE DUP4 PUSH0 KECCAK256 PUSH1 0x1F DUP4 ADD PUSH1 0x5 SHR DUP2 ADD SWAP2 DUP6 DUP5 LT PUSH2 0x1853 JUMPI JUMPDEST PUSH1 0x1F ADD PUSH1 0x5 SHR ADD SWAP1 JUMPDEST DUP2 DUP2 LT PUSH2 0x1848 JUMPI POP PUSH2 0x1719 JUMP JUMPDEST PUSH0 DUP2 SSTORE PUSH1 0x1 ADD PUSH2 0x183B JUMP JUMPDEST SWAP1 SWAP2 POP DUP2 SWAP1 PUSH2 0x1832 JUMP JUMPDEST PUSH1 0x40 MLOAD PUSH3 0x461BCD PUSH1 0xE5 SHL DUP2 MSTORE PUSH1 0x4 DUP2 ADD DUP7 SWAP1 MSTORE PUSH1 0x27 PUSH1 0x24 DUP3 ADD MSTORE PUSH32 0x456C20636572746966696361646F20796120736520656E6375656E7472612072 PUSH1 0x44 DUP3 ADD MSTORE PUSH7 0x65766F6361646F PUSH1 0xC8 SHL PUSH1 0x64 DUP3 ADD MSTORE PUSH1 0x84 SWAP1 REVERT JUMPDEST CALLVALUE PUSH2 0x1FA JUMPI PUSH2 0x134A PUSH2 0x18C3 CALLDATASIZE PUSH2 0x204B JUMP JUMPDEST SWAP1 PUSH1 0x40 MLOAD SWAP3 PUSH2 0x18D1 DUP5 PUSH2 0x1F52 JUMP JUMPDEST PUSH0 DUP5 MSTORE PUSH2 0x1344 DUP4 DUP4 DUP4 PUSH2 0x2179 JUMP JUMPDEST CALLVALUE PUSH2 0x1FA JUMPI PUSH2 0x134A PUSH2 0x18F0 CALLDATASIZE PUSH2 0x204B JUMP JUMPDEST SWAP2 PUSH2 0x2179 JUMP JUMPDEST CALLVALUE PUSH2 0x1FA JUMPI PUSH1 0x20 CALLDATASIZE PUSH1 0x3 NOT ADD SLT PUSH2 0x1FA JUMPI PUSH1 0x4 CALLDATALOAD PUSH0 MSTORE PUSH1 0x8 PUSH1 0x20 MSTORE PUSH1 0x40 PUSH0 KECCAK256 DUP1 SLOAD PUSH1 0x1 DUP3 ADD PUSH2 0x1924 SWAP1 PUSH2 0x1FA9 JUMP JUMPDEST SWAP2 PUSH2 0x1931 PUSH1 0x2 DUP3 ADD PUSH2 0x1FA9 JUMP JUMPDEST SWAP1 PUSH2 0x193E PUSH1 0x3 DUP3 ADD PUSH2 0x1FA9 JUMP JUMPDEST SWAP1 PUSH1 0x4 DUP2 ADD SLOAD SWAP2 PUSH1 0x5 DUP3 ADD SLOAD PUSH1 0x1 PUSH1 0xA0 SHL PUSH1 0x1 SWAP1 SUB SWAP1 DUP2 PUSH1 0x6 DUP6 ADD SLOAD AND SWAP1 PUSH1 0x7 DUP6 ADD SLOAD SWAP4 PUSH1 0x8 DUP7 ADD SLOAD SWAP6 PUSH1 0x9 ADD PUSH2 0x1974 SWAP1 PUSH2 0x1FA9 JUMP JUMPDEST SWAP8 PUSH1 0x40 MLOAD SWAP11 DUP12 SWAP11 PUSH2 0x160 SWAP1 DUP13 MSTORE DUP1 PUSH1 0x20 DUP14 ADD MSTORE DUP12 ADD PUSH2 0x1992 SWAP2 PUSH2 0x1EA0 JUMP JUMPDEST DUP11 DUP2 SUB PUSH1 0x40 DUP13 ADD MSTORE PUSH2 0x19A3 SWAP2 PUSH2 0x1EA0 JUMP JUMPDEST DUP10 DUP2 SUB PUSH1 0x60 DUP12 ADD MSTORE PUSH2 0x19B4 SWAP2 PUSH2 0x1EA0 JUMP JUMPDEST SWAP6 PUSH1 0x80 DUP10 ADD MSTORE PUSH1 0xA0 DUP9 ADD MSTORE PUSH1 0xC0 DUP8 ADD MSTORE DUP2 AND PUSH1 0xE0 DUP7 ADD MSTORE PUSH2 0x100 DUP6 ADD SWAP1 PUSH1 0xA0 SHR PUSH1 0xFF AND SWAP1 PUSH2 0x19E1 SWAP2 PUSH2 0x1EC5 JUMP JUMPDEST PUSH2 0x120 DUP5 ADD MSTORE DUP3 DUP2 SUB PUSH2 0x140 DUP5 ADD MSTORE PUSH2 0x1262 SWAP2 PUSH2 0x1EA0 JUMP JUMPDEST CALLVALUE PUSH2 0x1FA JUMPI PUSH1 0x20 CALLDATASIZE PUSH1 0x3 NOT ADD SLT PUSH2 0x1FA JUMPI PUSH1 0x4 CALLDATALOAD PUSH0 MSTORE PUSH1 0xA PUSH1 0x20 MSTORE PUSH1 0x20 PUSH1 0x40 PUSH0 KECCAK256 SLOAD PUSH1 0x40 MLOAD SWAP1 DUP2 MSTORE RETURN JUMPDEST CALLVALUE PUSH2 0x1FA JUMPI PUSH1 0x20 CALLDATASIZE PUSH1 0x3 NOT ADD SLT PUSH2 0x1FA JUMPI PUSH1 0x4 CALLDATALOAD PUSH0 MSTORE PUSH1 0xB PUSH1 0x20 MSTORE PUSH1 0x20 PUSH1 0x40 PUSH0 KECCAK256 SLOAD PUSH1 0x40 MLOAD SWAP1 DUP2 MSTORE RETURN JUMPDEST CALLVALUE PUSH2 0x1FA JUMPI PUSH1 0x40 CALLDATASIZE PUSH1 0x3 NOT ADD SLT PUSH2 0x1FA JUMPI PUSH2 0x1A66 PUSH2 0x1ED2 JUMP JUMPDEST PUSH1 0x24 CALLDATALOAD PUSH2 0x1A72 DUP2 PUSH2 0x24BD JUMP JUMPDEST CALLER ISZERO ISZERO DUP1 PUSH2 0x1B1B JUMPI JUMPDEST DUP1 PUSH2 0x1AF2 JUMPI JUMPDEST PUSH2 0x1ADA JUMPI PUSH1 0x1 PUSH1 0x1 PUSH1 0xA0 SHL SUB SWAP3 DUP4 AND SWAP3 DUP3 SWAP2 DUP5 SWAP2 AND PUSH32 0x8C5BE1E5EBEC7D5BD14F71427D1E84F3DD0314C0F7B2291E5B200AC8C7C3B925 PUSH0 DUP1 LOG4 PUSH0 SWAP1 DUP2 MSTORE PUSH1 0x4 PUSH1 0x20 MSTORE PUSH1 0x40 SWAP1 KECCAK256 DUP1 SLOAD PUSH1 0x1 PUSH1 0x1 PUSH1 0xA0 SHL SUB NOT AND SWAP1 SWAP2 OR SWAP1 SSTORE STOP JUMPDEST PUSH1 0x40 MLOAD PUSH4 0xA9FBF51F PUSH1 0xE0 SHL DUP2 MSTORE CALLER PUSH1 0x4 DUP3 ADD MSTORE PUSH1 0x24 SWAP1 REVERT JUMPDEST POP PUSH1 0x1 DUP1 PUSH1 0xA0 SHL SUB DUP2 AND PUSH0 MSTORE PUSH1 0x5 PUSH1 0x20 MSTORE PUSH1 0x40 PUSH0 KECCAK256 CALLER PUSH0 MSTORE PUSH1 0x20 MSTORE PUSH1 0xFF PUSH1 0x40 PUSH0 KECCAK256 SLOAD AND ISZERO PUSH2 0x1A81 JUMP JUMPDEST POP PUSH1 0x1 PUSH1 0x1 PUSH1 0xA0 SHL SUB DUP2 AND CALLER EQ ISZERO PUSH2 0x1A7B JUMP JUMPDEST CALLVALUE PUSH2 0x1FA JUMPI PUSH1 0x20 CALLDATASIZE PUSH1 0x3 NOT ADD SLT PUSH2 0x1FA JUMPI PUSH1 0x4 CALLDATALOAD PUSH2 0x1B4B DUP2 PUSH2 0x24BD JUMP JUMPDEST POP PUSH0 MSTORE PUSH1 0x4 PUSH1 0x20 MSTORE PUSH1 0x20 PUSH1 0x1 DUP1 PUSH1 0xA0 SHL SUB PUSH1 0x40 PUSH0 KECCAK256 SLOAD AND PUSH1 0x40 MLOAD SWAP1 DUP2 MSTORE RETURN JUMPDEST CALLVALUE PUSH2 0x1FA JUMPI PUSH1 0x20 CALLDATASIZE PUSH1 0x3 NOT ADD SLT PUSH2 0x1FA JUMPI PUSH1 0x4 CALLDATALOAD PUSH1 0x60 PUSH2 0x140 PUSH1 0x40 MLOAD PUSH2 0x1B8F DUP2 PUSH2 0x1F36 JUMP JUMPDEST PUSH0 DUP2 MSTORE DUP3 PUSH1 0x20 DUP3 ADD MSTORE DUP3 PUSH1 0x40 DUP3 ADD MSTORE DUP3 DUP1 DUP3 ADD MSTORE PUSH0 PUSH1 0x80 DUP3 ADD MSTORE PUSH0 PUSH1 0xA0 DUP3 ADD MSTORE PUSH0 PUSH1 0xC0 DUP3 ADD MSTORE PUSH0 PUSH1 0xE0 DUP3 ADD MSTORE PUSH0 PUSH2 0x100 DUP3 ADD MSTORE PUSH0 PUSH2 0x120 DUP3 ADD MSTORE ADD MSTORE DUP1 PUSH0 MSTORE PUSH1 0x8 PUSH1 0x20 MSTORE PUSH2 0x1BE2 PUSH1 0x40 PUSH0 KECCAK256 SLOAD ISZERO ISZERO PUSH2 0x211E JUMP JUMPDEST PUSH0 MSTORE PUSH1 0x8 PUSH1 0x20 MSTORE PUSH1 0x40 PUSH0 KECCAK256 PUSH1 0x40 MLOAD PUSH2 0x1BF9 DUP2 PUSH2 0x1F36 JUMP JUMPDEST DUP2 SLOAD DUP2 MSTORE PUSH2 0x1C09 PUSH1 0x1 DUP4 ADD PUSH2 0x1FA9 JUMP JUMPDEST PUSH1 0x20 DUP3 ADD MSTORE PUSH2 0x1C1A PUSH1 0x2 DUP4 ADD PUSH2 0x1FA9 JUMP JUMPDEST PUSH1 0x40 DUP3 ADD MSTORE PUSH2 0x1C2B PUSH1 0x3 DUP4 ADD PUSH2 0x1FA9 JUMP JUMPDEST PUSH1 0x60 DUP3 ADD MSTORE PUSH1 0x4 DUP3 ADD SLOAD PUSH1 0x80 DUP3 ADD MSTORE PUSH1 0x5 DUP3 ADD SLOAD PUSH1 0xA0 DUP1 DUP4 ADD SWAP2 SWAP1 SWAP2 MSTORE PUSH1 0x6 DUP4 ADD SLOAD PUSH1 0x1 PUSH1 0x1 PUSH1 0xA0 SHL SUB SWAP1 DUP2 AND PUSH1 0xC0 DUP5 ADD MSTORE PUSH1 0x7 DUP5 ADD SLOAD SWAP1 DUP2 AND PUSH1 0xE0 DUP5 ADD MSTORE SWAP1 SHR PUSH1 0xFF AND SWAP2 PUSH1 0x3 DUP4 LT ISZERO PUSH2 0x96D JUMPI PUSH1 0x9 PUSH2 0x1C9A SWAP2 PUSH2 0x1262 SWAP5 PUSH2 0x100 DUP6 ADD MSTORE PUSH1 0x8 DUP2 ADD SLOAD PUSH2 0x120 DUP6 ADD MSTORE ADD PUSH2 0x1FA9 JUMP JUMPDEST PUSH2 0x140 DUP3 ADD MSTORE PUSH1 0x40 MLOAD SWAP2 DUP3 SWAP2 PUSH1 0x20 DUP4 MSTORE DUP1 MLOAD PUSH1 0x20 DUP5 ADD MSTORE PUSH2 0x140 PUSH2 0x1D01 PUSH2 0x1CEB PUSH2 0x1CD5 PUSH1 0x20 DUP6 ADD MLOAD PUSH2 0x160 PUSH1 0x40 DUP10 ADD MSTORE PUSH2 0x180 DUP9 ADD SWAP1 PUSH2 0x1EA0 JUMP JUMPDEST PUSH1 0x40 DUP6 ADD MLOAD DUP8 DUP3 SUB PUSH1 0x1F NOT ADD PUSH1 0x60 DUP10 ADD MSTORE PUSH2 0x1EA0 JUMP JUMPDEST PUSH1 0x60 DUP5 ADD MLOAD DUP7 DUP3 SUB PUSH1 0x1F NOT ADD PUSH1 0x80 DUP9 ADD MSTORE PUSH2 0x1EA0 JUMP JUMPDEST SWAP2 PUSH1 0x80 DUP2 ADD MLOAD PUSH1 0xA0 DUP7 ADD MSTORE PUSH1 0xA0 DUP2 ADD MLOAD PUSH1 0xC0 DUP7 ADD MSTORE PUSH1 0x1 DUP1 PUSH1 0xA0 SHL SUB PUSH1 0xC0 DUP3 ADD MLOAD AND PUSH1 0xE0 DUP7 ADD MSTORE PUSH1 0x1 DUP1 PUSH1 0xA0 SHL SUB PUSH1 0xE0 DUP3 ADD MLOAD AND PUSH2 0x100 DUP7 ADD MSTORE PUSH2 0x1D4F PUSH2 0x100 DUP3 ADD MLOAD PUSH2 0x120 DUP8 ADD SWAP1 PUSH2 0x1EC5 JUMP JUMPDEST PUSH2 0x120 DUP2 ADD MLOAD DUP6 DUP4 ADD MSTORE ADD MLOAD DUP4 DUP3 SUB PUSH1 0x1F NOT ADD PUSH2 0x160 DUP6 ADD MSTORE PUSH2 0x1EA0 JUMP JUMPDEST CALLVALUE PUSH2 0x1FA JUMPI PUSH0 CALLDATASIZE PUSH1 0x3 NOT ADD SLT PUSH2 0x1FA JUMPI PUSH1 0x40 MLOAD PUSH0 DUP1 SLOAD SWAP1 DUP3 PUSH2 0x1D8E DUP4 PUSH2 0x1EFE JUMP JUMPDEST SWAP2 DUP3 DUP3 MSTORE PUSH1 0x20 SWAP4 PUSH1 0x1 SWAP1 DUP6 PUSH1 0x1 DUP3 AND SWAP2 DUP3 PUSH0 EQ PUSH2 0x14BB JUMPI POP POP PUSH1 0x1 EQ PUSH2 0x1DBB JUMPI POP PUSH2 0x144C SWAP3 POP SUB DUP4 PUSH2 0x1F88 JUMP JUMPDEST PUSH0 DUP1 DUP1 MSTORE DUP6 SWAP3 POP SWAP1 PUSH32 0x290DECD9548B62A8D60345A988386FC84BA6BC95484008F6362F93160EF3E563 JUMPDEST DUP6 DUP4 LT PUSH2 0x1DFC JUMPI POP POP PUSH2 0x144C SWAP4 POP DUP3 ADD ADD DUP6 PUSH2 0x143F JUMP JUMPDEST DUP1 SLOAD DUP4 DUP10 ADD DUP6 ADD MSTORE DUP8 SWAP5 POP DUP7 SWAP4 SWAP1 SWAP3 ADD SWAP2 DUP2 ADD PUSH2 0x1DE5 JUMP JUMPDEST CALLVALUE PUSH2 0x1FA JUMPI PUSH1 0x20 CALLDATASIZE PUSH1 0x3 NOT ADD SLT PUSH2 0x1FA JUMPI PUSH1 0x4 CALLDATALOAD SWAP1 PUSH4 0xFFFFFFFF PUSH1 0xE0 SHL DUP3 AND DUP1 SWAP3 SUB PUSH2 0x1FA JUMPI PUSH1 0x20 SWAP2 PUSH4 0x80AC58CD PUSH1 0xE0 SHL DUP2 EQ SWAP1 DUP2 ISZERO PUSH2 0x1E6E JUMPI JUMPDEST DUP2 ISZERO PUSH2 0x1E5D JUMPI JUMPDEST POP ISZERO ISZERO DUP2 MSTORE RETURN JUMPDEST PUSH4 0x1FFC9A7 PUSH1 0xE0 SHL EQ SWAP1 POP DUP4 PUSH2 0x1E56 JUMP JUMPDEST PUSH4 0x5B5E139F PUSH1 0xE0 SHL DUP2 EQ SWAP2 POP PUSH2 0x1E4F JUMP JUMPDEST PUSH0 JUMPDEST DUP4 DUP2 LT PUSH2 0x1E90 JUMPI POP POP PUSH0 SWAP2 ADD MSTORE JUMP JUMPDEST DUP2 DUP2 ADD MLOAD DUP4 DUP3 ADD MSTORE PUSH1 0x20 ADD PUSH2 0x1E81 JUMP JUMPDEST SWAP1 PUSH1 0x20 SWAP2 PUSH2 0x1EB9 DUP2 MLOAD DUP1 SWAP3 DUP2 DUP6 MSTORE DUP6 DUP1 DUP7 ADD SWAP2 ADD PUSH2 0x1E7F JUMP JUMPDEST PUSH1 0x1F ADD PUSH1 0x1F NOT AND ADD ADD SWAP1 JUMP JUMPDEST SWAP1 PUSH1 0x3 DUP3 LT ISZERO PUSH2 0x96D JUMPI MSTORE JUMP JUMPDEST PUSH1 0x4 CALLDATALOAD SWAP1 PUSH1 0x1 PUSH1 0x1 PUSH1 0xA0 SHL SUB DUP3 AND DUP3 SUB PUSH2 0x1FA JUMPI JUMP JUMPDEST PUSH1 0x24 CALLDATALOAD SWAP1 PUSH1 0x1 PUSH1 0x1 PUSH1 0xA0 SHL SUB DUP3 AND DUP3 SUB PUSH2 0x1FA JUMPI JUMP JUMPDEST SWAP1 PUSH1 0x1 DUP3 DUP2 SHR SWAP3 AND DUP1 ISZERO PUSH2 0x1F2C JUMPI JUMPDEST PUSH1 0x20 DUP4 LT EQ PUSH2 0x1F18 JUMPI JUMP JUMPDEST PUSH4 0x4E487B71 PUSH1 0xE0 SHL PUSH0 MSTORE PUSH1 0x22 PUSH1 0x4 MSTORE PUSH1 0x24 PUSH0 REVERT JUMPDEST SWAP2 PUSH1 0x7F AND SWAP2 PUSH2 0x1F0D JUMP JUMPDEST PUSH2 0x160 DUP2 ADD SWAP1 DUP2 LT PUSH1 0x1 PUSH1 0x1 PUSH1 0x40 SHL SUB DUP3 GT OR PUSH2 0x959 JUMPI PUSH1 0x40 MSTORE JUMP JUMPDEST PUSH1 0x20 DUP2 ADD SWAP1 DUP2 LT PUSH1 0x1 PUSH1 0x1 PUSH1 0x40 SHL SUB DUP3 GT OR PUSH2 0x959 JUMPI PUSH1 0x40 MSTORE JUMP JUMPDEST PUSH1 0x40 DUP2 ADD SWAP1 DUP2 LT PUSH1 0x1 PUSH1 0x1 PUSH1 0x40 SHL SUB DUP3 GT OR PUSH2 0x959 JUMPI PUSH1 0x40 MSTORE JUMP JUMPDEST SWAP1 PUSH1 0x1F DUP1 NOT SWAP2 ADD AND DUP2 ADD SWAP1 DUP2 LT PUSH1 0x1 PUSH1 0x1 PUSH1 0x40 SHL SUB DUP3 GT OR PUSH2 0x959 JUMPI PUSH1 0x40 MSTORE JUMP JUMPDEST SWAP1 PUSH1 0x40 MLOAD SWAP2 DUP3 PUSH0 DUP3 SLOAD PUSH2 0x1FBB DUP2 PUSH2 0x1EFE JUMP JUMPDEST SWAP1 DUP2 DUP5 MSTORE PUSH1 0x20 SWAP5 PUSH1 0x1 SWAP2 PUSH1 0x1 DUP2 AND SWAP1 DUP2 PUSH0 EQ PUSH2 0x2029 JUMPI POP PUSH1 0x1 EQ PUSH2 0x1FEB JUMPI JUMPDEST POP POP POP PUSH2 0x1FE9 SWAP3 POP SUB DUP4 PUSH2 0x1F88 JUMP JUMPDEST JUMP JUMPDEST PUSH0 SWAP1 DUP2 MSTORE DUP6 DUP2 KECCAK256 SWAP6 SWAP4 POP SWAP2 SWAP1 JUMPDEST DUP2 DUP4 LT PUSH2 0x2011 JUMPI POP POP PUSH2 0x1FE9 SWAP4 POP DUP3 ADD ADD PUSH0 DUP1 DUP1 PUSH2 0x1FDA JUMP JUMPDEST DUP6 SLOAD DUP9 DUP5 ADD DUP6 ADD MSTORE SWAP5 DUP6 ADD SWAP5 DUP8 SWAP5 POP SWAP2 DUP4 ADD SWAP2 PUSH2 0x1FF8 JUMP JUMPDEST SWAP3 POP POP POP PUSH2 0x1FE9 SWAP5 SWAP3 POP PUSH1 0xFF NOT AND DUP3 DUP5 ADD MSTORE ISZERO ISZERO PUSH1 0x5 SHL DUP3 ADD ADD PUSH0 DUP1 DUP1 PUSH2 0x1FDA JUMP JUMPDEST PUSH1 0x60 SWAP1 PUSH1 0x3 NOT ADD SLT PUSH2 0x1FA JUMPI PUSH1 0x1 PUSH1 0x1 PUSH1 0xA0 SHL SUB SWAP1 PUSH1 0x4 CALLDATALOAD DUP3 DUP2 AND DUP2 SUB PUSH2 0x1FA JUMPI SWAP2 PUSH1 0x24 CALLDATALOAD SWAP1 DUP2 AND DUP2 SUB PUSH2 0x1FA JUMPI SWAP1 PUSH1 0x44 CALLDATALOAD SWAP1 JUMP JUMPDEST PUSH1 0x1 PUSH1 0x1 PUSH1 0x40 SHL SUB DUP2 GT PUSH2 0x959 JUMPI PUSH1 0x1F ADD PUSH1 0x1F NOT AND PUSH1 0x20 ADD SWAP1 JUMP JUMPDEST SWAP3 SWAP2 SWAP3 PUSH2 0x20A7 DUP3 PUSH2 0x2080 JUMP JUMPDEST SWAP2 PUSH2 0x20B5 PUSH1 0x40 MLOAD SWAP4 DUP5 PUSH2 0x1F88 JUMP JUMPDEST DUP3 SWAP5 DUP2 DUP5 MSTORE DUP2 DUP4 ADD GT PUSH2 0x1FA JUMPI DUP3 DUP2 PUSH1 0x20 SWAP4 DUP5 PUSH0 SWAP7 ADD CALLDATACOPY ADD ADD MSTORE JUMP JUMPDEST SWAP1 DUP1 PUSH1 0x1F DUP4 ADD SLT ISZERO PUSH2 0x1FA JUMPI DUP2 PUSH1 0x20 PUSH2 0x20EC SWAP4 CALLDATALOAD SWAP2 ADD PUSH2 0x209B JUMP JUMPDEST SWAP1 JUMP JUMPDEST PUSH1 0x40 SWAP1 PUSH1 0x3 NOT ADD SLT PUSH2 0x1FA JUMPI PUSH1 0x4 CALLDATALOAD PUSH1 0x1 PUSH1 0x1 PUSH1 0xA0 SHL SUB DUP2 AND DUP2 SUB PUSH2 0x1FA JUMPI SWAP1 PUSH1 0x24 CALLDATALOAD DUP1 ISZERO ISZERO DUP2 SUB PUSH2 0x1FA JUMPI SWAP1 JUMP JUMPDEST ISZERO PUSH2 0x2125 JUMPI JUMP JUMPDEST PUSH1 0x40 MLOAD PUSH3 0x461BCD PUSH1 0xE5 SHL DUP2 MSTORE PUSH1 0x20 PUSH1 0x4 DUP3 ADD MSTORE PUSH1 0x26 PUSH1 0x24 DUP3 ADD MSTORE PUSH32 0x436572746966696361646F206E6F20656E636F6E747261646F20656E20656C20 PUSH1 0x44 DUP3 ADD MSTORE PUSH6 0x3632B233B2B9 PUSH1 0xD1 SHL PUSH1 0x64 DUP3 ADD MSTORE PUSH1 0x84 SWAP1 REVERT JUMPDEST PUSH1 0x1 PUSH1 0x1 PUSH1 0xA0 SHL SUB SWAP2 DUP3 AND SWAP3 SWAP1 SWAP2 DUP4 ISZERO PUSH2 0x2376 JUMPI DUP2 PUSH0 MSTORE PUSH1 0x20 SWAP3 PUSH1 0x2 DUP5 MSTORE PUSH1 0x40 SWAP5 DUP3 DUP7 PUSH0 KECCAK256 SLOAD AND ISZERO DUP1 ISZERO PUSH2 0x236F JUMPI JUMPDEST ISZERO PUSH2 0x2317 JUMPI DUP4 SWAP1 DUP2 PUSH0 MSTORE PUSH1 0x2 DUP7 MSTORE DUP4 DUP8 PUSH0 KECCAK256 SLOAD AND SWAP6 CALLER ISZERO ISZERO DUP1 PUSH2 0x2285 JUMPI JUMPDEST POP PUSH1 0x2 SWAP1 DUP8 PUSH2 0x2254 JUMPI JUMPDEST DUP3 PUSH0 MSTORE PUSH1 0x3 DUP2 MSTORE DUP9 PUSH0 KECCAK256 PUSH1 0x1 DUP2 SLOAD ADD SWAP1 SSTORE DUP4 PUSH0 MSTORE MSTORE DUP7 PUSH0 KECCAK256 DUP2 PUSH12 0xFFFFFFFFFFFFFFFFFFFFFFFF PUSH1 0xA0 SHL DUP3 SLOAD AND OR SWAP1 SSTORE DUP6 PUSH32 0xDDF252AD1BE2C89B69C2B068FC378DAA952BA7F163C4A11628F55A4DF523B3EF PUSH0 DUP1 LOG4 AND SWAP3 DUP4 DUP4 SUB PUSH2 0x2233 JUMPI POP POP POP POP JUMP JUMPDEST PUSH1 0x64 SWAP5 POP MLOAD SWAP3 PUSH4 0x64283D7B PUSH1 0xE0 SHL DUP5 MSTORE PUSH1 0x4 DUP5 ADD MSTORE PUSH1 0x24 DUP4 ADD MSTORE PUSH1 0x44 DUP3 ADD MSTORE REVERT JUMPDEST PUSH0 DUP5 DUP2 MSTORE PUSH1 0x4 PUSH1 0x20 MSTORE PUSH1 0x40 DUP2 KECCAK256 DUP1 SLOAD PUSH1 0x1 PUSH1 0x1 PUSH1 0xA0 SHL SUB NOT AND SWAP1 SSTORE DUP9 DUP2 MSTORE PUSH1 0x3 DUP3 MSTORE DUP10 SWAP1 KECCAK256 DUP1 SLOAD PUSH0 NOT ADD SWAP1 SSTORE PUSH2 0x21D0 JUMP JUMPDEST SWAP2 SWAP3 POP SWAP1 DUP1 PUSH2 0x22D6 JUMPI JUMPDEST ISZERO PUSH2 0x229D JUMPI SWAP1 DUP5 SWAP2 PUSH0 PUSH2 0x21C6 JUMP JUMPDEST DUP7 DUP6 DUP8 PUSH2 0x22BA JUMPI PUSH1 0x24 SWAP2 MLOAD SWAP1 PUSH4 0x7E273289 PUSH1 0xE0 SHL DUP3 MSTORE PUSH1 0x4 DUP3 ADD MSTORE REVERT JUMPDEST PUSH1 0x44 SWAP2 MLOAD SWAP1 PUSH4 0x177E802F PUSH1 0xE0 SHL DUP3 MSTORE CALLER PUSH1 0x4 DUP4 ADD MSTORE PUSH1 0x24 DUP3 ADD MSTORE REVERT JUMPDEST POP CALLER DUP7 EQ DUP1 ISZERO PUSH2 0x22FB JUMPI JUMPDEST DUP1 PUSH2 0x228F JUMPI POP DUP5 PUSH0 MSTORE PUSH1 0x4 DUP2 MSTORE CALLER DUP5 DUP9 PUSH0 KECCAK256 SLOAD AND EQ PUSH2 0x228F JUMP JUMPDEST POP DUP6 PUSH0 MSTORE PUSH1 0x5 DUP2 MSTORE DUP7 PUSH0 KECCAK256 CALLER PUSH0 MSTORE DUP2 MSTORE PUSH1 0xFF DUP8 PUSH0 KECCAK256 SLOAD AND PUSH2 0x22E1 JUMP JUMPDEST DUP6 MLOAD PUSH3 0x461BCD PUSH1 0xE5 SHL DUP2 MSTORE PUSH1 0x4 DUP2 ADD DUP7 SWAP1 MSTORE PUSH1 0x2B PUSH1 0x24 DUP3 ADD MSTORE PUSH32 0x536F756C626F756E643A20656C20636572746966696361646F20657320696E74 PUSH1 0x44 DUP3 ADD MSTORE PUSH11 0x72616E7366657269626C65 PUSH1 0xA8 SHL PUSH1 0x64 DUP3 ADD MSTORE PUSH1 0x84 SWAP1 REVERT JUMPDEST POP PUSH0 PUSH2 0x21A8 JUMP JUMPDEST PUSH1 0x40 MLOAD PUSH4 0x32505749 PUSH1 0xE1 SHL DUP2 MSTORE PUSH0 PUSH1 0x4 DUP3 ADD MSTORE PUSH1 0x24 SWAP1 REVERT JUMPDEST ISZERO PUSH2 0x2395 JUMPI JUMP JUMPDEST PUSH1 0x40 MLOAD PUSH3 0x461BCD PUSH1 0xE5 SHL DUP2 MSTORE PUSH1 0x20 PUSH1 0x4 DUP3 ADD MSTORE PUSH1 0x2E PUSH1 0x24 DUP3 ADD MSTORE PUSH32 0x4E6F206572657320756E20656D69736F72206175746F72697A61646F20285265 PUSH1 0x44 DUP3 ADD MSTORE PUSH14 0x63746F722F4469726563746F7229 PUSH1 0x90 SHL PUSH1 0x64 DUP3 ADD MSTORE PUSH1 0x84 SWAP1 REVERT JUMPDEST ISZERO PUSH2 0x23F8 JUMPI JUMP JUMPDEST PUSH1 0x40 MLOAD PUSH3 0x461BCD PUSH1 0xE5 SHL DUP2 MSTORE PUSH1 0x20 PUSH1 0x4 DUP3 ADD MSTORE PUSH1 0x18 PUSH1 0x24 DUP3 ADD MSTORE PUSH32 0x456C20636572746966696361646F206E6F206578697374650000000000000000 PUSH1 0x44 DUP3 ADD MSTORE PUSH1 0x64 SWAP1 REVERT JUMPDEST PUSH0 SWAP3 SWAP2 DUP2 SLOAD PUSH2 0x244B DUP2 PUSH2 0x1EFE JUMP JUMPDEST SWAP3 PUSH1 0x1 SWAP2 DUP1 DUP4 AND SWAP1 DUP2 ISZERO PUSH2 0x24A2 JUMPI POP PUSH1 0x1 EQ PUSH2 0x2468 JUMPI JUMPDEST POP POP POP POP JUMP JUMPDEST SWAP1 SWAP2 SWAP3 SWAP4 SWAP5 POP PUSH0 MSTORE PUSH1 0x20 SWAP1 PUSH1 0x20 PUSH0 KECCAK256 SWAP1 PUSH0 SWAP2 JUMPDEST DUP6 DUP4 LT PUSH2 0x2491 JUMPI POP POP POP POP ADD SWAP1 PUSH0 DUP1 DUP1 DUP1 PUSH2 0x2462 JUMP JUMPDEST DUP1 SLOAD DUP6 DUP5 ADD MSTORE SWAP2 DUP4 ADD SWAP2 DUP2 ADD PUSH2 0x247B JUMP JUMPDEST PUSH1 0xFF NOT AND DUP5 MSTORE POP POP POP DUP2 ISZERO ISZERO SWAP1 SWAP2 MUL ADD SWAP2 POP PUSH0 DUP1 DUP1 DUP1 PUSH2 0x2462 JUMP JUMPDEST PUSH0 DUP2 DUP2 MSTORE PUSH1 0x2 PUSH1 0x20 MSTORE PUSH1 0x40 SWAP1 KECCAK256 SLOAD PUSH1 0x1 PUSH1 0x1 PUSH1 0xA0 SHL SUB AND SWAP1 DUP2 ISZERO PUSH2 0x24DF JUMPI POP SWAP1 JUMP JUMPDEST PUSH1 0x24 SWAP1 PUSH1 0x40 MLOAD SWAP1 PUSH4 0x7E273289 PUSH1 0xE0 SHL DUP3 MSTORE PUSH1 0x4 DUP3 ADD MSTORE REVERT JUMPDEST SWAP3 SWAP4 SWAP1 SWAP2 SWAP4 DUP5 EXTCODESIZE PUSH2 0x250A JUMPI JUMPDEST POP POP POP POP POP JUMP JUMPDEST PUSH1 0x40 MLOAD PUSH4 0xA85BD01 PUSH1 0xE1 SHL DUP1 DUP3 MSTORE PUSH1 0x1 PUSH1 0x1 PUSH1 0xA0 SHL SUB SWAP6 DUP7 AND PUSH1 0x4 DUP4 ADD MSTORE SWAP4 DUP6 AND PUSH1 0x24 DUP3 ADD MSTORE PUSH1 0x44 DUP2 ADD SWAP2 SWAP1 SWAP2 MSTORE PUSH1 0x80 PUSH1 0x64 DUP3 ADD MSTORE PUSH1 0x20 SWAP6 SWAP5 SWAP1 SWAP4 AND SWAP4 SWAP3 SWAP1 DUP6 SWAP1 DUP3 SWAP1 DUP2 SWAP1 PUSH2 0x255D SWAP1 PUSH1 0x84 DUP4 ADD SWAP1 PUSH2 0x1EA0 JUMP JUMPDEST SUB DUP2 PUSH0 DUP9 GAS CALL PUSH0 SWAP2 DUP2 PUSH2 0x2601 JUMPI JUMPDEST POP PUSH2 0x25CA JUMPI POP POP POP RETURNDATASIZE PUSH0 EQ PUSH2 0x25C2 JUMPI RETURNDATASIZE SWAP2 PUSH2 0x2585 DUP4 PUSH2 0x2080 JUMP JUMPDEST SWAP3 PUSH2 0x2593 PUSH1 0x40 MLOAD SWAP5 DUP6 PUSH2 0x1F88 JUMP JUMPDEST DUP4 MSTORE RETURNDATASIZE PUSH0 DUP3 DUP6 ADD RETURNDATACOPY JUMPDEST DUP3 MLOAD SWAP3 DUP4 PUSH2 0x25BD JUMPI PUSH1 0x40 MLOAD PUSH4 0x32505749 PUSH1 0xE1 SHL DUP2 MSTORE PUSH1 0x4 DUP2 ADD DUP5 SWAP1 MSTORE PUSH1 0x24 SWAP1 REVERT JUMPDEST ADD SWAP1 POP REVERT JUMPDEST PUSH1 0x60 SWAP2 PUSH2 0x259C JUMP JUMPDEST SWAP2 SWAP4 POP PUSH1 0x1 PUSH1 0x1 PUSH1 0xE0 SHL SUB NOT SWAP1 SWAP2 AND SUB PUSH2 0x25E9 JUMPI POP PUSH0 DUP1 DUP1 DUP1 DUP1 PUSH2 0x2503 JUMP JUMPDEST PUSH1 0x24 SWAP1 PUSH1 0x40 MLOAD SWAP1 PUSH4 0x32505749 PUSH1 0xE1 SHL DUP3 MSTORE PUSH1 0x4 DUP3 ADD MSTORE REVERT JUMPDEST SWAP1 SWAP2 POP DUP6 DUP2 DUP2 RETURNDATASIZE DUP4 GT PUSH2 0x263A JUMPI JUMPDEST PUSH2 0x2619 DUP2 DUP4 PUSH2 0x1F88 JUMP JUMPDEST DUP2 ADD SUB SLT PUSH2 0x1FA JUMPI MLOAD PUSH1 0x1 PUSH1 0x1 PUSH1 0xE0 SHL SUB NOT DUP2 AND DUP2 SUB PUSH2 0x1FA JUMPI SWAP1 PUSH0 PUSH2 0x256B JUMP JUMPDEST POP RETURNDATASIZE PUSH2 0x260F JUMP JUMPDEST DUP1 PUSH0 SWAP2 PUSH27 0x184F03E93FF9F4DAA797ED6E38ED64BF6A1F010000000000000000 DUP1 DUP3 LT ISZERO PUSH2 0x279A JUMPI JUMPDEST POP PUSH14 0x4EE2D6D415B85ACEF8100000000 DUP1 DUP4 LT ISZERO PUSH2 0x278B JUMPI JUMPDEST POP PUSH7 0x2386F26FC10000 DUP1 DUP4 LT ISZERO PUSH2 0x277C JUMPI JUMPDEST POP PUSH4 0x5F5E100 DUP1 DUP4 LT ISZERO PUSH2 0x276D JUMPI JUMPDEST POP PUSH2 0x2710 DUP1 DUP4 LT ISZERO PUSH2 0x275E JUMPI JUMPDEST POP PUSH1 0x64 DUP3 LT ISZERO PUSH2 0x274E JUMPI JUMPDEST PUSH1 0xA DUP1 SWAP3 LT ISZERO PUSH2 0x2744 JUMPI JUMPDEST PUSH1 0x1 SWAP1 DUP2 PUSH1 0x21 PUSH1 0x1 DUP7 ADD SWAP6 PUSH2 0x26DA DUP8 PUSH2 0x2080 JUMP JUMPDEST SWAP7 PUSH2 0x26E8 PUSH1 0x40 MLOAD SWAP9 DUP10 PUSH2 0x1F88 JUMP JUMPDEST DUP1 DUP9 MSTORE PUSH2 0x26F7 PUSH1 0x1F NOT SWAP2 PUSH2 0x2080 JUMP JUMPDEST ADD CALLDATASIZE PUSH1 0x20 DUP10 ADD CALLDATACOPY DUP7 ADD ADD SWAP1 JUMPDEST PUSH2 0x270F JUMPI JUMPDEST POP POP POP POP SWAP1 JUMP JUMPDEST PUSH0 NOT ADD SWAP1 DUP4 SWAP1 PUSH16 0x181899199A1A9B1B9C1CB0B131B232B3 PUSH1 0x81 SHL DUP3 DUP3 MOD BYTE DUP4 MSTORE8 DIV SWAP2 DUP3 ISZERO PUSH2 0x273F JUMPI SWAP2 SWAP1 DUP3 PUSH2 0x2703 JUMP JUMPDEST PUSH2 0x2708 JUMP JUMPDEST SWAP2 PUSH1 0x1 ADD SWAP2 PUSH2 0x26C6 JUMP JUMPDEST SWAP2 SWAP1 PUSH1 0x64 PUSH1 0x2 SWAP2 DIV SWAP2 ADD SWAP2 PUSH2 0x26BB JUMP JUMPDEST PUSH1 0x4 SWAP2 SWAP4 SWAP3 DIV SWAP2 ADD SWAP2 PUSH0 PUSH2 0x26B0 JUMP JUMPDEST PUSH1 0x8 SWAP2 SWAP4 SWAP3 DIV SWAP2 ADD SWAP2 PUSH0 PUSH2 0x26A3 JUMP JUMPDEST PUSH1 0x10 SWAP2 SWAP4 SWAP3 DIV SWAP2 ADD SWAP2 PUSH0 PUSH2 0x2694 JUMP JUMPDEST PUSH1 0x20 SWAP2 SWAP4 SWAP3 DIV SWAP2 ADD SWAP2 PUSH0 PUSH2 0x2682 JUMP JUMPDEST PUSH1 0x40 SWAP4 POP DUP2 DIV SWAP2 POP PUSH0 PUSH2 0x2669 JUMP JUMPDEST PUSH1 0x3 DUP2 LT ISZERO PUSH2 0x96D JUMPI PUSH1 0x2 DUP2 EQ PUSH2 0x2815 JUMPI PUSH1 0x1 EQ PUSH2 0x27F2 JUMPI PUSH1 0x40 MLOAD PUSH2 0x27CC DUP2 PUSH2 0x1F6D JUMP JUMPDEST PUSH1 0x16 DUP2 MSTORE PUSH22 0x2832B73234B2B73A32903232902932B1B2B831B4B7B7 PUSH1 0x51 SHL PUSH1 0x20 DUP3 ADD MSTORE SWAP1 JUMP JUMPDEST PUSH1 0x40 MLOAD PUSH2 0x27FE DUP2 PUSH2 0x1F6D JUMP JUMPDEST PUSH1 0x7 DUP2 MSTORE PUSH7 0x566967656E7465 PUSH1 0xC8 SHL PUSH1 0x20 DUP3 ADD MSTORE SWAP1 JUMP JUMPDEST POP PUSH1 0x40 MLOAD PUSH2 0x2822 DUP2 PUSH2 0x1F6D JUMP JUMPDEST PUSH1 0x8 DUP2 MSTORE PUSH8 0x5265766F6361646F PUSH1 0xC0 SHL PUSH1 0x20 DUP3 ADD MSTORE SWAP1 JUMP JUMPDEST DUP1 MLOAD ISZERO PUSH2 0x2966 JUMPI DUP1 MLOAD SWAP2 PUSH1 0x2 DUP1 DUP5 ADD DUP1 SWAP5 GT PUSH2 0x88A JUMPI PUSH1 0x3 SWAP4 DUP5 SWAP1 DIV PUSH1 0x2 DUP2 SWAP1 SHL SWAP2 SWAP1 PUSH1 0x1 PUSH1 0x1 PUSH1 0xFE SHL SUB DUP2 AND SUB PUSH2 0x88A JUMPI SWAP4 PUSH1 0x40 MLOAD SWAP4 PUSH32 0x4142434445464748494A4B4C4D4E4F505152535455565758595A616263646566 PUSH1 0x1F MSTORE PUSH1 0x3F SWAP2 PUSH32 0x6768696A6B6C6D6E6F707172737475767778797A303132333435363738392B2F PUSH1 0x3F MSTORE PUSH1 0x20 DUP7 ADD SWAP3 DUP3 SWAP2 DUP4 MLOAD DUP5 ADD SWAP2 PUSH1 0x20 DUP4 ADD SWAP10 DUP11 MLOAD SWAP5 PUSH0 DUP13 MSTORE JUMPDEST DUP5 DUP2 LT PUSH2 0x292A JUMPI POP POP POP POP POP SWAP1 PUSH1 0x3 SWAP2 PUSH1 0x20 SWAP6 SWAP7 SWAP8 MSTORE MLOAD MOD DUP1 PUSH1 0x1 EQ PUSH2 0x2915 JUMPI PUSH1 0x2 EQ PUSH2 0x2908 JUMPI JUMPDEST POP DUP1 DUP5 MSTORE DUP4 ADD ADD PUSH1 0x40 MSTORE JUMP JUMPDEST PUSH1 0x3D SWAP1 PUSH0 NOT ADD MSTORE8 PUSH0 PUSH2 0x28FC JUMP JUMPDEST POP PUSH1 0x3D SWAP1 DUP2 PUSH0 NOT DUP3 ADD MSTORE8 PUSH1 0x1 NOT ADD MSTORE8 PUSH0 PUSH2 0x28FC JUMP JUMPDEST DUP4 PUSH1 0x4 SWAP2 SWAP13 SWAP6 SWAP9 SWAP13 ADD SWAP12 DUP4 DUP14 MLOAD DUP2 DUP2 PUSH1 0x12 SHR AND MLOAD DUP4 MSTORE8 DUP2 DUP2 PUSH1 0xC SHR AND MLOAD PUSH1 0x1 DUP5 ADD MSTORE8 DUP2 DUP2 PUSH1 0x6 SHR AND MLOAD DUP6 DUP5 ADD MSTORE8 AND MLOAD DUP6 DUP3 ADD MSTORE8 ADD SWAP7 SWAP4 SWAP11 PUSH2 0x28D4 JUMP JUMPDEST POP PUSH1 0x40 MLOAD PUSH2 0x2973 DUP2 PUSH2 0x1F52 JUMP JUMPDEST PUSH0 DUP2 MSTORE SWAP1 JUMP INVALID LOG2 PUSH5 0x6970667358 0x22 SLT KECCAK256 PC CALLCODE 0xCF 0x4C 0x4D SDIV NUMBER 0xF MUL SWAP14 0xCC 0xC7 PUSH0 0xCB CODECOPY SWAP14 KECCAK256 BLOBBASEFEE TSTORE PUSH27 0x2F7805EE8B7AB153C3F8208564736F6C6343000818003300000000 "},"methodIdentifiers":{"approve(address,uint256)":"095ea7b3","balanceOf(address)":"70a08231","certificados(bytes32)":"11b09380","consultarHistorial(bytes32)":"796bf795","emisoresAutorizados(address)":"68cad01c","emitirCertificado(bytes32,string,string,string,address)":"ee666da0","firmarRecepcion(bytes32)":"e8e0909d","getApproved(uint256)":"081812fc","hashPorToken(uint256)":"0db16eca","isApprovedForAll(address,address)":"e985e9c5","name()":"06fdde03","ordenarEmisor(address,bool)":"f6178369","owner()":"8da5cb5b","ownerOf(uint256)":"6352211e","revocarCertificado(bytes32,string)":"4a754636","safeTransferFrom(address,address,uint256)":"42842e0e","safeTransferFrom(address,address,uint256,bytes)":"b88d4fde","setApprovalForAll(address,bool)":"a22cb465","supportsInterface(bytes4)":"01ffc9a7","symbol()":"95d89b41","tokenPorHash(bytes32)":"0c188b4c","tokenURI(uint256)":"c87b56dd","transferFrom(address,address,uint256)":"23b872dd","verificarCertificado(bytes32)":"0800ba3f"}}}}}